:020000040000FA
:04000000E7EF00F036
:060008005F822CED32F0D6
:100018005F80D8CF00F1E8CF01F1E0CF02F1F2A084
:1000280018EF00F01AEF00F0DFEF00F0F290030E87
:100038000101DD19D8A423EF00F025EF00F039EF16
:1000480000F00001EF51D8A42CEF00F02EEF00F0E3
:1000580039EF00F081BC33EF00F035EF00F039EFF5
:1000680000F0010EEF6F4CEF00F0020E0001EF19E7
:10007800D8A441EF00F043EF00F04CEF00F081AC62
:1000880048EF00F04AEF00F04CEF00F0030EEF6F7E
:10009800020E0101DD19D8A454EF00F056EF00F06C
:1000A8006AEF00F00001EE51D8A45DEF00F05FEFB9
:1000B80000F06AEF00F081BE64EF00F066EF00F038
:1000C8006AEF00F0010EEE6F7DEF00F0020E000106
:1000D800EE19D8A472EF00F074EF00F07DEF00F095
:1000E80081AE79EF00F07BEF00F07DEF00F0030EBA
:1000F800EE6F040E0101DD19D8A485EF00F087EF3B
:1001080000F09BEF00F00001F051D8A48EEF00F052
:1001180090EF00F09BEF00F081BA95EF00F097EFB9
:1001280000F09BEF00F0010EF06FAEEF00F0020E52
:100138000001F019D8A4A3EF00F0A5EF00F0AEEF8E
:1001480000F081AAAAEF00F0ACEF00F0AEEF00F0EB
:10015800030EF06F050E0101DD19D8A4B6EF00F00B
:10016800B8EF00F0CBEF00F05E50D8A4BEEF00F07F
:10017800C0EF00F0CBEF00F081B8C5EF00F0C7EF9B
:1001880000F0CBEF00F0010E5E6EDDEF00F0020E26
:100198005E18D8A4D2EF00F0D4EF00F0DDEF00F045
:1001A80081A8D9EF00F0DBEF00F0DDEF00F0030EDF
:1001B8005E6E81CFEDF002C1E0FF01C1E8FF00C132
:0A01C800D8FF5F90100087EF42F0AF
:1010000000494E46494E49545900696E66696E69F9
:101010007479004C45443030004C45443031004C2C
:1010200045443032004C45443033004C4544303464
:1010300000253032780025303478004E414E00696A
:101040006E66006E616E00686858006C6C580068CF
:101050006864006C6C6400686869006C6C690068A6
:10106000686E006C6C6E0068686F006C6C6F006876
:101070006875006C6C7500686878006C6C78004569
:101080004E4400535044004D414E00474F4F0041E5
:101090004C54006A58007458007A58006C61006A19
:1010A00064007464007A64006C65006C66006C67B0
:1010B000006A69007469007A69006A6E00746E00E3
:1010C0007A6E006A6F00746F007A6F006A75007440
:1010D00075007A75006A78007478007A78002300C9
:0110E000000F
:1010E20070C1D9FF71C1DAFFDECFF6FFDDCFF7FFA6
:1010F200000EF86E0800F550250AD8A483EF08F018
:1011020085EF08F03FEF1DF070C1D9FF71C1DAFF22
:10111200DE2A000EDD22000E0101D06F000ECF6F1D
:10112200CFC1D1F1D0C1D2F170C1D9FF71C1DAFF03
:10113200DECFF6FFDDCFF7FF000EF86E0800F550A8
:101142002A0AD8A4A7EF08F0A9EF08F0B4EF08F034
:1011520070C1D9FF71C1DAFFDE2A000EDD22000E56
:10116200D26F010ED16F70C1D9FF71C1DAFFDECF2C
:101172000AF1DDCF0BF17DEC3BF00AC1CFF10BC1DF
:10118200D0F1CBEF08F070C1D9FF71C1DAFFDE2ACE
:10119200000EDD22D00E0101746FFF0E756F70C15B
:1011A200D9FF71C1DAFFDECFF6FFDDCFF7FF000E08
:1011B200F86E0800F550766F776B7451762775518B
:1011C200772377510AE10A0E765DD8A0EBEF08F09B
:1011D200EEEF08F0010EEFEF08F0000E806F816B6A
:1011E20080518111D8A4F8EF08F0FAEF08F0C4EFAB
:1011F20008F070C1D9FF71C1DAFFDECFF6FFDDCF93
:10120200F7FF000EF86E0800F550096F0A6B63ECE9
:1012120045F001010951866F8651D8B413EF09F0E8
:1012220015EF09F053EF09F070C1D9FF71C1DAFF70
:10123200DECF74F1DDCF75F1010E7427000E752338
:1012420074C1F6FF75C1F7FF000EF86E0800F55085
:10125200096F0A6B63EC45F001010951876F8751F1
:10126200D8B436EF09F038EF09F053EF09F070C146
:10127200D9FF71C1DAFFDECF74F1DDCF75F1020E55
:101282007427000E752374C1F6FF75C1F7FF000EB7
:10129200F86E0800F550096F0A6B63EC45F0010126
:1012A2000951886F70C1D9FF71C1DAFFDECFF6FF35
:1012B200DDCFF7FF000EF86E0800F550630AD8A4E0
:1012C20065EF09F067EF09F0AFEF09F070C1D9FFE0
:1012D20071C1DAFFDE2A000EDD22D151D211D8A46B
:1012E20075EF09F077EF09F09BEF09F072C1D9FFB2
:1012F20073C1DAFFDFCF74F1020EDE26DFCF75F1A4
:10130200000EDD2274C1D9FF75C1DAFFDECF9DF177
:10131200DDCF9EF16EC10EF16FC10FF19DC110F1D3
:101322009EC111F1D0EC3DF00EC19FF10FC1A0F1B1
:10133200A9EF09F06EC10EF16FC10FF1000E106F2F
:10134200000E116FD0EC3DF00EC19FF10FC1A0F164
:101352009FC16EF1A0C16FF17EEF1DF070C1D9FF88
:1013620071C1DAFFDECF03F1DDCF04F14F0E056F5D
:10137200100E066F000E086F030E076F6CEC3EF046
:10138200010103510411D8B4C9EF09F0CBEF09F000
:10139200E7EF09F070C1D9FF71C1DAFFDECF03F1C7
:1013A200DDCF04F1570E056F100E066F000E086FA9
:1013B200030E076F6CEC3EF0010103510411D8A437
:1013C200E5EF09F0E7EF09F030EF0AF0030E70C124
:1013D200D9FF71C1DAFFDE26000EDD226EC158F19F
:1013E2006FC159F18D0E5A6F010E5B6FEFEC36F043
:1013F20058C19FF159C1A0F10101D151D211D8A414
:1014020005EF0AF007EF0AF0A9EF09F0A0BF12EF0B
:101412000AF0A05108E19F05D8A012EF0AF014EFDC
:101422000AF0A9EF09F072C1D9FF73C1DAFFDFCF69
:1014320074F1020EDE26DFCF75F1000EDD2274C1DB
:10144200D9FF75C1DAFFDECF9DF1DDCF9EF19DC1DF
:10145200D9FF9EC1DAFF8DC1DFFFA9EF09F070C18C
:10146200D9FF71C1DAFFDECF03F1DDCF04F1500EF7
:10147200056F100E066F000E086F020E076F6CEC00
:101482003EF0010103510411D8B44AEF0AF04CEFC7
:101492000AF068EF0AF070C1D9FF71C1DAFFDECF3E
:1014A20003F1DDCF04F1580E056F100E066F000E2A
:1014B200086F020E076F6CEC3EF00101035104113C
:1014C200D8A466EF0AF068EF0AF0B3EF0AF0020E52
:1014D20070C1D9FF71C1DAFFDE26000EDD226EC1B6
:1014E20058F16FC159F18D0E5A6F010E5B6FEFEC1F
:1014F20036F058C19FF159C1A0F10101D151D21169
:10150200D8A486EF0AF088EF0AF0A9EF09F0A0BF8D
:1015120093EF0AF0A05108E19F05D8A093EF0AF0DB
:1015220095EF0AF0A9EF09F072C1D9FF73C1DAFF92
:10153200DFCF74F1020EDE26DFCF75F1000EDD2261
:1015420074C1D9FF75C1DAFFDECF9DF1DDCF9EF107
:101552009DC1D9FF9EC1DAFF8DC1DEFF8EC1DDFFC5
:10156200A9EF09F070C1D9FF71C1DAFFDECFF6FF32
:10157200DDCFF7FF000EF86E0800F550640AD8B40C
:10158200C5EF0AF0C7EF0AF0DBEF0AF070C1D9FF2E
:1015920071C1DAFFDECFF6FFDDCFF7FF000EF86E86
:1015A2000800F550690AD8A4D9EF0AF0DBEF0AF077
:1015B20025EF0BF070C1D9FF71C1DAFFDE2A000EF0
:1015C200DD226EC158F16FC159F18D0E5A6F010EB5
:1015D2005B6FEFEC36F058C19FF159C1A0F10101E8
:1015E200D151D211D8A4F8EF0AF0FAEF0AF0A9EF1C
:1015F20009F0A0BF05EF0BF0A05108E19F05D8A0AC
:1016020005EF0BF007EF0BF0A9EF09F072C1D9FF5C
:1016120073C1DAFFDFCF74F1020EDE26DFCF75F180
:10162200000EDD2274C1D9FF75C1DAFFDECF9DF154
:10163200DDCF9EF19DC1D9FF9EC1DAFF8DC1DEFFD4
:101642008EC1DDFFA9EF09F070C1D9FF71C1DAFFC8
:10165200DECF03F1DDCF04F1540E056F100E066FDD
:10166200000E086F020E076F6CEC3EF00101035191
:101672000411D8B43FEF0BF041EF0BF05DEF0BF02C
:1016820070C1D9FF71C1DAFFDECF03F1DDCF04F102
:101692005C0E056F100E066F000E086F020E076FCC
:1016A2006CEC3EF0010103510411D8A45BEF0BF086
:1016B2005DEF0BF0ACEF0BF0020E70C1D9FF71C100
:1016C200DAFFDE26000EDD226EC158F16FC159F13C
:1016D2008D0E5A6F010E5B6FEFEC36F058C19FF121
:1016E20059C1A0F10101D151D211D8A47BEF0BF065
:1016F2007DEF0BF0A9EF09F0A0BF88EF0BF0A0512E
:1017020008E19F05D8A088EF0BF08AEF0BF0A9EF54
:1017120009F072C1D9FF73C1DAFFDFCF74F1020E93
:10172200DE26DFCF75F1000EDD2274C1D9FF75C14F
:10173200DAFFDECF9DF1DDCF9EF19DC1D9FF9EC1C3
:10174200DAFF8DC1DEFF8EC1DEFF8FC1DEFF90C1E9
:10175200DEFFA9EF09F070C1D9FF71C1DAFFDECF58
:1017620003F1DDCF04F1530E056F100E066F000E6C
:10177200086F030E076F6CEC3EF001010351041178
:10178200D8B4C6EF0BF0C8EF0BF0E4EF0BF070C16A
:10179200D9FF71C1DAFFDECF03F1DDCF04F15B0EB9
:1017A200056F100E066F000E086F030E076F6CECCC
:1017B2003EF0010103510411D8A4E2EF0BF0E4EF73
:1017C2000BF03BEF0CF0030E70C1D9FF71C1DAFFD1
:1017D200DE26000EDD226EC158F16FC159F18D0E69
:1017E2005A6F010E5B6FEFEC36F058C19FF159C191
:1017F200A0F10101D151D211D8A402EF0CF004EFF3
:101802000CF0A9EF09F0A0BF0FEF0CF0A05108E116
:101812009F05D8A00FEF0CF011EF0CF0A9EF09F023
:1018220072C1D9FF73C1DAFFDFCF74F1020EDE2677
:10183200DFCF75F1000EDD2274C1D9FF75C1DAFF69
:10184200DECF9DF1DDCF9EF19DC1D9FF9EC1DAFFB2
:101852008DC1DEFF8EC1DEFF8FC1DEFF90C1DEFFD4
:1018620091C1DEFF92C1DEFF93C1DEFF94C1DEFFB4
:10187200A9EF09F070C1D9FF71C1DAFFDECF03F120
:10188200DDCF04F19F0E056F100E066F000E086F7C
:10189200020E076F6CEC3EF0010103510411D8B443
:1018A20055EF0CF057EF0CF073EF0CF070C1D9FF4D
:1018B20071C1DAFFDECF03F1DDCF04F1B10E056FA6
:1018C200100E066F000E086F020E076F6CEC3EF0F2
:1018D200010103510411D8A471EF0CF073EF0CF065
:1018E200CAEF0CF0020E70C1D9FF71C1DAFFDE2619
:1018F200000EDD226EC158F16FC159F18D0E5A6F83
:10190200010E5B6FEFEC36F058C19FF159C1A0F1A7
:101912000101D151D211D8A491EF0CF093EF0CF048
:10192200A9EF09F0A0BF9EEF0CF0A05108E19F05BE
:10193200D8A09EEF0CF0A0EF0CF0A9EF09F072C155
:10194200D9FF73C1DAFFDFCF74F1020EDE26DFCFDB
:1019520075F1000EDD2274C1D9FF75C1DAFFDECF49
:101962009DF1DDCF9EF19DC1D9FF9EC1DAFF8DC1F0
:10197200DEFF8EC1DEFF8FC1DEFF90C1DEFF91C1AF
:10198200DEFF92C1DEFF93C1DEFF94C1DEFFA9EF4D
:1019920009F070C1D9FF71C1DAFFDECF03F1DDCFEB
:1019A20004F1A20E056F100E066F000E086F020EF4
:1019B200076F6CEC3EF0010103510411D8B4E4EF5F
:1019C2000CF0E6EF0CF002EF0DF070C1D9FF71C11F
:1019D200DAFFDECF03F1DDCF04F1B40E056F100E96
:1019E200066F000E086F020E076F6CEC3EF00101ED
:1019F20003510411D8A400EF0DF002EF0DF051EFE6
:101A02000DF0020E70C1D9FF71C1DAFFDE26000EA1
:101A1200DD226EC158F16FC159F18D0E5A6F010E60
:101A22005B6FEFEC36F058C19FF159C1A0F1010193
:101A3200D151D211D8A420EF0DF022EF0DF0A9EF71
:101A420009F0A0BF2DEF0DF0A05108E19F05D8A02D
:101A52002DEF0DF02FEF0DF0A9EF09F072C1D9FFB4
:101A620073C1DAFFDFCF74F1020EDE26DFCF75F12C
:101A7200000EDD2274C1D9FF75C1DAFFDECF9DF100
:101A8200DDCF9EF19DC1D9FF9EC1DAFF8DC1DEFF80
:101A92008EC1DEFF8FC1DEFF90C1DEFFA9EF09F02C
:101AA20070C1D9FF71C1DAFFDECF03F1DDCF04F1DE
:101AB200A50E056F100E066F000E086F020E076F5F
:101AC2006CEC3EF0010103510411D8B46BEF0DF040
:101AD2006DEF0DF089EF0DF070C1D9FF71C1DAFF22
:101AE200DECF03F1DDCF04F1B70E056F100E066FE6
:101AF200000E086F020E076F6CEC3EF001010351FD
:101B02000411D8A487EF0DF089EF0DF0D4EF0DF09A
:101B1200020E70C1D9FF71C1DAFFDE26000EDD228E
:101B22006EC158F16FC159F18D0E5A6F010E5B6F84
:101B3200EFEC36F058C19FF159C1A0F10101D1512A
:101B4200D211D8A4A7EF0DF0A9EF0DF0A9EF09F07B
:101B5200A0BFB4EF0DF0A05108E19F05D8A0B4EFEB
:101B62000DF0B6EF0DF0A9EF09F072C1D9FF73C104
:101B7200DAFFDFCF74F1020EDE26DFCF75F1000E41
:101B8200DD2274C1D9FF75C1DAFFDECF9DF1DDCF51
:101B92009EF19DC1D9FF9EC1DAFF8DC1DEFF8EC1CC
:101BA200DDFFA9EF09F0610E8619D8B4DBEF0DF065
:101BB200DDEF0DF0F8EF0DF0650E8619D8B4E4EF05
:101BC2000DF0E6EF0DF0F8EF0DF0660E8619D8B4C1
:101BD200EDEF0DF0EFEF0DF0F8EF0DF0670E861957
:101BE200D8A4F6EF0DF0F8EF0DF046EF0EF070C14D
:101BF200D9FF71C1DAFFDE2A000EDD226EC142F189
:101C02006FC143F1890E446F010E456F7FEC33F0D3
:101C120042C19FF143C1A0F10101D151D211D8A417
:101C220015EF0EF017EF0EF0A9EF09F0A0BF22EFAB
:101C32000EF0A05108E19F05D8A022EF0EF024EF8C
:101C42000EF0A9EF09F072C1D9FF73C1DAFFDFCF3D
:101C520074F1020EDE26DFCF75F1000EDD2274C1B3
:101C6200D9FF75C1DAFFDECF9DF1DDCF9EF19DC1B7
:101C7200D9FF9EC1DAFF89C1DEFF8AC1DEFF8BC1B7
:101C8200DEFF8CC1DEFFA9EF09F0860E036F010EA5
:101C9200046F9C0E056F100E066F000E086F020E89
:101CA200076F6CEC3EF0010103510411D8B45CEFF4
:101CB2000EF05EEF0EF0A6EF0EF0860E036F010E31
:101CC200046FA80E056F100E066F000E086F020E4D
:101CD200076F6CEC3EF0010103510411D8B474EFAC
:101CE2000EF076EF0EF0A6EF0EF0860E036F010EE9
:101CF200046FAB0E056F100E066F000E086F020E1A
:101D0200076F6CEC3EF0010103510411D8B48CEF63
:101D12000EF08EEF0EF0A6EF0EF0860E036F010EA0
:101D2200046FAE0E056F100E066F000E086F020EE6
:101D3200076F6CEC3EF0010103510411D8A4A4EF2B
:101D42000EF0A6EF0EF045EF0FF06EC142F16FC13B
:101D520043F1890E446F010E456F7FEC33F042C1AF
:101D62009FF143C1A0F10101D151D211D8A4BCEF1E
:101D72000EF0BEEF0EF03BEF0FF0A0BFC9EF0EF07A
:101D8200A05108E19F05D8A0C9EF0EF0CBEF0EF0ED
:101D92003BEF0FF0BF0E746FFF0E756F70C1D9FF6E
:101DA20071C1DAFFDECFF6FFDDCFF7FF000EF86E6E
:101DB2000800F550766F776B74517627755177234B
:101DC20077510AE11A0E765DD8A0EAEF0EF0EDEF38
:101DD2000EF0010EEEEF0EF0000E826F836B825159
:101DE2008311D8B4F7EF0EF0F9EF0EF01BEF0FF0FE
:101DF20072C1D9FF73C1DAFFDFCF74F1020EDE26A2
:101E0200DFCF75F1000EDD2274C1D9FF75C1DAFF93
:101E1200DECF9DF1DDCF9EF19DC1D9FF9EC1DAFFDC
:101E220089C1DEFF8AC1DEFF8BC1DEFF8CC1DEFF0E
:101E32003BEF0FF072C1D9FF73C1DAFFDFCF74F14C
:101E4200020EDE26DFCF75F1000EDD2274C1D9FF4E
:101E520075C1DAFFDECF9DF1DDCF9EF19DC1D9FFC5
:101E62009EC1DAFF89C1DEFF8AC1DEFF8BC1DEFFC0
:101E72008CC1DEFF020E70C1D9FF71C1DAFFDE260E
:101E8200000EDD22A9EF09F070C1D9FF71C1DAFF9E
:101E9200DECF03F1DDCF04F1670E056F100E066F82
:101EA200000E086F030E076F6CEC3EF00101035148
:101EB2000411D8A45FEF0FF061EF0FF0AAEF0FF05B
:101EC200030E70C1D9FF71C1DAFFDE26000EDD22DA
:101ED2006EC158F16FC159F1950E5A6F010E5B6FC9
:101EE200EFEC38F058C19FF159C1A0F10101D15175
:101EF200D211D8A47FEF0FF081EF0FF0A9EF09F014
:101F0200A0BF8CEF0FF0A05108E19F05D8A08CEF85
:101F12000FF08EEF0FF0A9EF09F072C1D9FF73C174
:101F2200DAFFDFCF74F1020EDE26DFCF75F1000E8D
:101F3200DD2274C1D9FF75C1DAFFDECF9DF1DDCF9D
:101F42009EF19DC1D9FF9EC1DAFF95C1DFFFA9EFC6
:101F520009F070C1D9FF71C1DAFFDECF03F1DDCF25
:101F620004F1680E056F100E066F000E086F020E68
:101F7200076F6CEC3EF0010103510411D8A4C4EFC9
:101F82000FF0C6EF0FF011EF10F0020E70C1D9FF83
:101F920071C1DAFFDE26000EDD226EC158F16FC17B
:101FA20059F1950E5A6F010E5B6FEFEC38F058C184
:101FB2009FF159C1A0F10101D151D211D8A4E4EF8E
:101FC2000FF0E6EF0FF0A9EF09F0A0BFF1EF0FF06D
:101FD200A05108E19F05D8A0F1EF0FF0F3EF0FF049
:101FE200A9EF09F072C1D9FF73C1DAFFDFCF74F133
:101FF200020EDE26DFCF75F1000EDD2274C1D9FF9D
:1020020075C1DAFFDECF9DF1DDCF9EF19DC1D9FF13
:102012009EC1DAFF95C1DEFF96C1DDFFA9EF09F08F
:1020220070C1D9FF71C1DAFFDECFF6FFDDCFF7FF56
:10203200000EF86E0800F5506F0AD8A423EF10F0D6
:1020420025EF10F06FEF10F070C1D9FF71C1DAFF08
:10205200DE2A000EDD226EC158F16FC159F1950ED4
:102062005A6F010E5B6FEFEC38F058C19FF159C106
:10207200A0F10101D151D211D8A442EF10F044EFE6
:1020820010F0A9EF09F0A0BF4FEF10F0A05108E146
:102092009F05D8A04FEF10F051EF10F0A9EF09F013
:1020A20072C1D9FF73C1DAFFDFCF74F1020EDE26EF
:1020B200DFCF75F1000EDD2274C1D9FF75C1DAFFE1
:1020C200DECF9DF1DDCF9EF19DC1D9FF9EC1DAFF2A
:1020D20095C1DEFF96C1DDFFA9EF09F070C1D9FFFE
:1020E20071C1DAFFDECF03F1DDCF04F16C0E056FB3
:1020F200100E066F000E086F020E076F6CEC3EF0BA
:10210200010103510411D8A489EF10F08BEF10F0F4
:10211200DAEF10F0020E70C1D9FF71C1DAFFDE26CC
:10212200000EDD226EC158F16FC159F1950E5A6F42
:10213200010E5B6FEFEC38F058C19FF159C1A0F16D
:102142000101D151D211D8A4A9EF10F0ABEF10F0D8
:10215200A9EF09F0A0BFB6EF10F0A05108E19F056A
:10216200D8A0B6EF10F0B8EF10F0A9EF09F072C1E5
:10217200D9FF73C1DAFFDFCF74F1020EDE26DFCFA3
:1021820075F1000EDD2274C1D9FF75C1DAFFDECF11
:102192009DF1DDCF9EF19DC1D9FF9EC1DAFF95C1B0
:1021A200DEFF96C1DEFF97C1DEFF98C1DEFFA9EF19
:1021B20009F070C1D9FF71C1DAFFDECF03F1DDCFC3
:1021C20004F16B0E056F100E066F000E086F030E02
:1021D200076F6CEC3EF0010103510411D8A4F4EF37
:1021E20010F0F6EF10F04DEF11F0030E70C1D9FFB1
:1021F20071C1DAFFDE26000EDD226EC158F16FC119
:1022020059F1950E5A6F010E5B6FEFEC38F058C121
:102212009FF159C1A0F10101D151D211D8A414EFFB
:1022220011F016EF11F0A9EF09F0A0BF21EF11F0A4
:10223200A05108E19F05D8A021EF11F023EF11F082
:10224200A9EF09F072C1D9FF73C1DAFFDFCF74F1D0
:10225200020EDE26DFCF75F1000EDD2274C1D9FF3A
:1022620075C1DAFFDECF9DF1DDCF9EF19DC1D9FFB1
:102272009EC1DAFF95C1DEFF96C1DEFF97C1DEFF88
:1022820098C1DEFF99C1DEFF9AC1DEFF9BC1DEFF6E
:102292009CC1DEFFA9EF09F070C1D9FF71C1DAFF5D
:1022A200DECF03F1DDCF04F1C30E056F100E066F12
:1022B200000E086F020E076F6CEC3EF00101035135
:1022C2000411D8A467EF11F069EF11F0C0EF11F01B
:1022D200020E70C1D9FF71C1DAFFDE26000EDD22C7
:1022E2006EC158F16FC159F1950E5A6F010E5B6FB5
:1022F200EFEC38F058C19FF159C1A0F10101D15161
:10230200D211D8A487EF11F089EF11F0A9EF09F0EB
:10231200A0BF94EF11F0A05108E19F05D8A094EF5F
:1023220011F096EF11F0A9EF09F072C1D9FF73C154
:10233200DAFFDFCF74F1020EDE26DFCF75F1000E79
:10234200DD2274C1D9FF75C1DAFFDECF9DF1DDCF89
:102352009EF19DC1D9FF9EC1DAFF95C1DEFF96C1F4
:10236200DEFF97C1DEFF98C1DEFF99C1DEFF9AC191
:10237200DEFF9BC1DEFF9CC1DEFFA9EF09F070C149
:10238200D9FF71C1DAFFDECF03F1DDCF04F1C60E52
:10239200056F100E066F000E086F020E076F6CECD1
:1023A2003EF0010103510411D8A4DAEF11F0DCEF81
:1023B20011F02BEF12F0020E70C1D9FF71C1DAFFDA
:1023C200DE26000EDD226EC158F16FC159F1950E65
:1023D2005A6F010E5B6FEFEC38F058C19FF159C193
:1023E200A0F10101D151D211D8A4FAEF11F0FCEF02
:1023F20011F0A9EF09F0A0BF07EF12F0A05108E118
:102402009F05D8A007EF12F009EF12F0A9EF09F02B
:1024120072C1D9FF73C1DAFFDFCF74F1020EDE267B
:10242200DFCF75F1000EDD2274C1D9FF75C1DAFF6D
:10243200DECF9DF1DDCF9EF19DC1D9FF9EC1DAFFB6
:1024420095C1DEFF96C1DEFF97C1DEFF98C1DEFFB8
:10245200A9EF09F070C1D9FF71C1DAFFDECF03F134
:10246200DDCF04F1C90E056F100E066F000E086F66
:10247200020E076F6CEC3EF0010103510411D8A467
:1024820045EF12F047EF12F092EF12F0020E70C118
:10249200D9FF71C1DAFFDE26000EDD226EC158F1CE
:1024A2006FC159F1950E5A6F010E5B6FEFEC38F068
:1024B20058C19FF159C1A0F10101D151D211D8A443
:1024C20065EF12F067EF12F0A9EF09F0A0BF72EF0B
:1024D20012F0A05108E19F05D8A072EF12F074EF3C
:1024E20012F0A9EF09F072C1D9FF73C1DAFFDFCF91
:1024F20074F1020EDE26DFCF75F1000EDD2274C10B
:10250200D9FF75C1DAFFDECF9DF1DDCF9EF19DC10E
:10251200D9FF9EC1DAFF95C1DEFF96C1DDFFA9EFAB
:1025220009F070C1D9FF71C1DAFFDECF03F1DDCF4F
:1025320004F15F0E056F100E066F000E086F030E9A
:10254200076F6CEC3EF0010103510411D8A4ACEF0B
:1025520012F0AEEF12F0D6EF12F0030E70C1D9FFF7
:1025620071C1DAFFDE26000EDD2272C1D9FF73C10E
:10257200DAFFDFCF74F1020EDE26DFCF75F1000E37
:10258200DD2274C1D9FF75C1DAFFDECF9DF1DDCF47
:102592009EF19DC1D9FF9EC1DAFFCBC1DFFF000EC4
:1025A2006F6F000E6E6F7EEF1DF070C1D9FF71C1AB
:1025B200DAFFDECF03F1DDCF04F1600E056F100EFE
:1025C200066F000E086F020E076F6CEC3EF0010101
:1025D20003510411D8A4F0EF12F0F2EF12F018EF49
:1025E20013F0020E70C1D9FF71C1DAFFDE26000EB0
:1025F200DD2272C1D9FF73C1DAFFDFCF74F1020E9F
:10260200DE26DFCF75F1000EDD2274C1D9FF75C160
:10261200DAFFDECF9DF1DDCF9EF19DC1D9FF9EC1D4
:10262200DAFFCBC1DEFFCCC1DDFFD0EF12F070C10B
:10263200D9FF71C1DAFFDECFF6FFDDCFF7FF000E63
:10264200F86E0800F5506E0AD8A42AEF13F02CEFAA
:1026520013F051EF13F070C1D9FF71C1DAFFDE2A16
:10266200000EDD2272C1D9FF73C1DAFFDFCF74F130
:10267200020EDE26DFCF75F1000EDD2274C1D9FF16
:1026820075C1DAFFDECF9DF1DDCF9EF19DC1D9FF8D
:102692009EC1DAFFCBC1DEFFCCC1DDFFD0EF12F06D
:1026A20070C1D9FF71C1DAFFDECF03F1DDCF04F1D2
:1026B200640E056F100E066F000E086F020E076F94
:1026C2006CEC3EF0010103510411D8A46BEF13F03E
:1026D2006DEF13F0A0EF13F0020E70C1D9FF71C1BC
:1026E200DAFFDE26000EDD2272C1D9FF73C1DAFFE6
:1026F200DFCF74F1020EDE26DFCF75F1000EDD2290
:1027020074C1D9FF75C1DAFFDECF9DF1DDCF9EF135
:10271200CBC174F1CCC175F1000E75BFFF0E766F9F
:10272200776F9DC1D9FF9EC1DAFF74C1DEFF75C10B
:10273200DEFF76C1DEFF77C1DEFFD0EF12F070C19F
:10274200D9FF71C1DAFFDECF03F1DDCF04F1630EF1
:10275200056F100E066F000E086F030E076F6CEC0C
:102762003EF0010103510411D8A4BAEF13F0BCEFFB
:1027720013F0FBEF13F0030E70C1D9FF71C1DAFF42
:10278200DE26000EDD2272C1D9FF73C1DAFFDFCF70
:1027920074F1020EDE26DFCF75F1000EDD2274C168
:1027A200D9FF75C1DAFFDECF9DF1DDCF9EF1CBC13E
:1027B20074F1CCC175F1000E75BFFF0E766F776FA5
:1027C200786F796F7A6F7B6F9DC1D9FF9EC1DAFFF7
:1027D20074C1DEFF75C1DEFF76C1DEFF77C1DEFFA9
:1027E20078C1DEFF79C1DEFF7AC1DEFF7BC1DEFF89
:1027F200D0EF12F070C1D9FF71C1DAFFDECF03F161
:10280200DDCF04F1BA0E056F100E066F000E086FD1
:10281200020E076F6CEC3EF0010103510411D8A4C3
:1028220015EF14F017EF14F056EF14F0020E70C10A
:10283200D9FF71C1DAFFDE26000EDD2272C1D9FF97
:1028420073C1DAFFDFCF74F1020EDE26DFCF75F13E
:10285200000EDD2274C1D9FF75C1DAFFDECF9DF112
:10286200DDCF9EF1CBC174F1CCC175F1000E75BF05
:10287200FF0E766F776F786F796F7A6F7B6F9DC17E
:10288200D9FF9EC1DAFF74C1DEFF75C1DEFF76C1DA
:10289200DEFF77C1DEFF78C1DEFF79C1DEFF7AC1DC
:1028A200DEFF7BC1DEFFD0EF12F070C1D9FF71C134
:1028B200DAFFDECF03F1DDCF04F1BD0E056F100E9E
:1028C200066F000E086F020E076F6CEC3EF00101FE
:1028D20003510411D8A470EF14F072EF14F0A5EFB5
:1028E20014F0020E70C1D9FF71C1DAFFDE26000EAC
:1028F200DD2272C1D9FF73C1DAFFDFCF74F1020E9C
:10290200DE26DFCF75F1000EDD2274C1D9FF75C15D
:10291200DAFFDECF9DF1DDCF9EF1CBC174F1CCC1E8
:1029220075F1000E75BFFF0E766F776F9DC1D9FFEF
:102932009EC1DAFF74C1DEFF75C1DEFF76C1DEFF24
:1029420077C1DEFFD0EF12F070C1D9FF71C1DAFF9B
:10295200DECF03F1DDCF04F1C00E056F100E066F5E
:10296200000E086F020E076F6CEC3EF0010103517E
:102972000411D8A4BFEF14F0C1EF14F0E7EF14F084
:10298200020E70C1D9FF71C1DAFFDE26000EDD2210
:1029920072C1D9FF73C1DAFFDFCF74F1020EDE26F6
:1029A200DFCF75F1000EDD2274C1D9FF75C1DAFFE8
:1029B200DECF9DF1DDCF9EF19DC1D9FF9EC1DAFF31
:1029C200CBC1DEFFCCC1DDFFD0EF12F070C1D9FF69
:1029D20071C1DAFFDECFF6FFDDCFF7FF000EF86E32
:1029E2000800F550700AD8A4F9EF14F0FBEF14F0C8
:1029F20049EF15F070C1D9FF71C1DAFFDE2A000E6E
:102A0200DD226EC158F16FC159F1950E5A6F010E58
:102A12005B6FA7EC3AF058C19FF159C1A0F10101D7
:102A2200D151D211D8A418EF15F01AEF15F0A9EF71
:102A320009F0A0BF25EF15F0A05108E19F05D8A02D
:102A420025EF15F027EF15F0A9EF09F072C1D9FFB4
:102A520073C1DAFFDFCF74F1020EDE26DFCF75F12C
:102A6200000EDD2274C1D9FF75C1DAFFDECF7EF11F
:102A7200DDCF7FF17EC1D9FF7FC1DAFF95C1DEFFD5
:102A820096C1DEFF97C1DEFF98C1DEFFA9EF09F014
:102A920070C1D9FF71C1DAFFDECFF6FFDDCFF7FFDC
:102AA200000EF86E0800F550730AD8A45BEF15F01B
:102AB2005DEF15F0A1EF15F070C1D9FF71C1DAFF1A
:102AC200DE2A000EDD22D151D211D8A46BEF15F00F
:102AD2006DEF15F091EF15F072C1D9FF73C1DAFFF6
:102AE200DFCF74F1020EDE26DFCF75F1000EDD229C
:102AF20074C1D9FF75C1DAFFDECF7CF1DDCF7DF184
:102B02006EC119F16FC11AF17CC11BF17DC11CF1BB
:102B120023EC3DF019C19FF11AC1A0F1A9EF09F010
:102B22006EC119F16FC11AF1000E1B6F000E1C6FFE
:102B320023EC3DF019C19FF11AC1A0F1A9EF09F0F0
:102B420070C1D9FF71C1DAFFDECF03F1DDCF04F12D
:102B52006F0E056F100E066F000E086F030E076FE3
:102B62006CEC3EF0010103510411D8A4BBEF15F047
:102B7200BDEF15F006EF16F0030E70C1D9FF71C15B
:102B8200DAFFDE26000EDD226EC158F16FC159F167
:102B9200950E5A6F010E5B6FE6EC35F058C19FF14E
:102BA20059C1A0F10101D151D211D8A4DBEF15F026
:102BB200DDEF15F0A9EF09F0A0BFE8EF15F0A05185
:102BC20008E19F05D8A0E8EF15F0EAEF15F0A9EFAC
:102BD20009F072C1D9FF73C1DAFFDFCF74F1020EBF
:102BE200DE26DFCF75F1000EDD2274C1D9FF75C17B
:102BF200DAFFDECF9DF1DDCF9EF19DC1D9FF9EC1EF
:102C0200DAFF95C1DFFFA9EF09F070C1D9FF71C1E9
:102C1200DAFFDECF03F1DDCF04F1700E056F100E87
:102C2200066F000E086F020E076F6CEC3EF001019A
:102C320003510411D8A420EF16F022EF16F06DEF25
:102C420016F0020E70C1D9FF71C1DAFFDE26000E46
:102C5200DD226EC158F16FC159F1950E5A6F010E06
:102C62005B6FE6EC35F058C19FF159C1A0F101014B
:102C7200D151D211D8A440EF16F042EF16F0A9EFCD
:102C820009F0A0BF4DEF16F0A05108E19F05D8A0B2
:102C92004DEF16F04FEF16F0A9EF09F072C1D9FF10
:102CA20073C1DAFFDFCF74F1020EDE26DFCF75F1DA
:102CB200000EDD2274C1D9FF75C1DAFFDECF9DF1AE
:102CC200DDCF9EF19DC1D9FF9EC1DAFF95C1DEFF26
:102CD20096C1DDFFA9EF09F070C1D9FF71C1DAFF1A
:102CE200DECFF6FFDDCFF7FF000EF86E0800F550DD
:102CF200750AD8A47FEF16F081EF16F0CBEF16F02D
:102D020070C1D9FF71C1DAFFDE2A000EDD226EC169
:102D120058F16FC159F1950E5A6F010E5B6FE6ECD7
:102D220035F058C19FF159C1A0F10101D151D21121
:102D3200D8A49EEF16F0A0EF16F0A9EF09F0A0BFFD
:102D4200ABEF16F0A05108E19F05D8A0ABEF16F04B
:102D5200ADEF16F0A9EF09F072C1D9FF73C1DAFF26
:102D6200DFCF74F1020EDE26DFCF75F1000EDD2219
:102D720074C1D9FF75C1DAFFDECF9DF1DDCF9EF1BF
:102D82009DC1D9FF9EC1DAFF95C1DEFF96C1DDFF6D
:102D9200A9EF09F070C1D9FF71C1DAFFDECF03F1EB
:102DA200DDCF04F1740E056F100E066F000E086F72
:102DB200020E076F6CEC3EF0010103510411D8A41E
:102DC200E5EF16F0E7EF16F036EF17F0020E70C1DE
:102DD200D9FF71C1DAFFDE26000EDD226EC158F185
:102DE2006FC159F1950E5A6F010E5B6FE6EC35F02B
:102DF20058C19FF159C1A0F10101D151D211D8A4FA
:102E020005EF17F007EF17F0A9EF09F0A0BF12EFD7
:102E120017F0A05108E19F05D8A012EF17F014EFA8
:102E220017F0A9EF09F072C1D9FF73C1DAFFDFCF42
:102E320074F1020EDE26DFCF75F1000EDD2274C1C1
:102E4200D9FF75C1DAFFDECF9DF1DDCF9EF19DC1C5
:102E5200D9FF9EC1DAFF95C1DEFF96C1DEFF97C1A1
:102E6200DEFF98C1DEFFA9EF09F070C1D9FF71C181
:102E7200DAFFDECF03F1DDCF04F1730E056F100E22
:102E8200066F000E086F030E076F6CEC3EF0010137
:102E920003510411D8A450EF17F052EF17F0A9EF25
:102EA20017F0030E70C1D9FF71C1DAFFDE26000EE2
:102EB200DD226EC158F16FC159F1950E5A6F010EA4
:102EC2005B6FE6EC35F058C19FF159C1A0F10101E9
:102ED200D151D211D8A470EF17F072EF17F0A9EF09
:102EE20009F0A0BF7DEF17F0A05108E19F05D8A01F
:102EF2007DEF17F07FEF17F0A9EF09F072C1D9FF4C
:102F020073C1DAFFDFCF74F1020EDE26DFCF75F177
:102F1200000EDD2274C1D9FF75C1DAFFDECF9DF14B
:102F2200DDCF9EF19DC1D9FF9EC1DAFF95C1DEFFC3
:102F320096C1DEFF97C1DEFF98C1DEFF99C1DEFFB9
:102F42009AC1DEFF9BC1DEFF9CC1DEFFA9EF09F043
:102F520070C1D9FF71C1DAFFDECF03F1DDCF04F119
:102F6200CC0E056F100E066F000E086F020E076F73
:102F72006CEC3EF0010103510411D8A4C3EF17F029
:102F8200C5EF17F01CEF18F0020E70C1D9FF71C126
:102F9200DAFFDE26000EDD226EC158F16FC159F153
:102FA200950E5A6F010E5B6FE6EC35F058C19FF13A
:102FB20059C1A0F10101D151D211D8A4E3EF17F008
:102FC200E5EF17F0A9EF09F0A0BFF0EF17F0A0515D
:102FD20008E19F05D8A0F0EF17F0F2EF17F0A9EF84
:102FE20009F072C1D9FF73C1DAFFDFCF74F1020EAB
:102FF200DE26DFCF75F1000EDD2274C1D9FF75C167
:10300200DAFFDECF9DF1DDCF9EF19DC1D9FF9EC1DA
:10301200DAFF95C1DEFF96C1DEFF97C1DEFF98C1E0
:10302200DEFF99C1DEFF9AC1DEFF9BC1DEFF9CC1BC
:10303200DEFFA9EF09F070C1D9FF71C1DAFFDECF5F
:1030420003F1DDCF04F1CF0E056F100E066F000EF7
:10305200086F020E076F6CEC3EF001010351041180
:10306200D8A436EF18F038EF18F087EF18F0020EF8
:1030720070C1D9FF71C1DAFFDE26000EDD226EC1FA
:1030820058F16FC159F1950E5A6F010E5B6FE6EC64
:1030920035F058C19FF159C1A0F10101D151D211AE
:1030A200D8A456EF18F058EF18F0A9EF09F0A0BF16
:1030B20063EF18F0A05108E19F05D8A063EF18F064
:1030C20065EF18F0A9EF09F072C1D9FF73C1DAFFF9
:1030D200DFCF74F1020EDE26DFCF75F1000EDD22A6
:1030E20074C1D9FF75C1DAFFDECF9DF1DDCF9EF14C
:1030F2009DC1D9FF9EC1DAFF95C1DEFF96C1DEFFF9
:1031020097C1DEFF98C1DEFFA9EF09F070C1D9FFB8
:1031120071C1DAFFDECF03F1DDCF04F1D20E056F0C
:10312200100E066F000E086F020E076F6CEC3EF079
:10313200010103510411D8A4A1EF18F0A3EF18F074
:10314200EEEF18F0020E70C1D9FF71C1DAFFDE2670
:10315200000EDD226EC158F16FC159F1950E5A6F02
:10316200010E5B6FE6EC35F058C19FF159C1A0F139
:103172000101D151D211D8A4C1EF18F0C3EF18F058
:10318200A9EF09F0A0BFCEEF18F0A05108E19F050A
:10319200D8A0CEEF18F0D0EF18F0A9EF09F072C165
:1031A200D9FF73C1DAFFDFCF74F1020EDE26DFCF63
:1031B20075F1000EDD2274C1D9FF75C1DAFFDECFD1
:1031C2009DF1DDCF9EF19DC1D9FF9EC1DAFF95C170
:1031D200DEFF96C1DDFFA9EF09F070C1D9FF71C111
:1031E200DAFFDECF03F1DDCF04F1770E056F100EAB
:1031F200066F000E086F030E076F6CEC3EF00101C4
:1032020003510411D8B408EF19F00AEF19F026EFB0
:1032120019F070C1D9FF71C1DAFFDECF03F1DDCF42
:1032220004F1470E056F100E066F000E086F030EB5
:10323200076F6CEC3EF0010103510411D8A424EF96
:1032420019F026EF19F06FEF19F0030E70C1D9FFD4
:1032520071C1DAFFDE26000EDD226EC158F16FC1A8
:1032620059F1950E5A6F010E5B6FA7EC3AF058C1F7
:103272009FF159C1A0F10101D151D211D8A444EF5B
:1032820019F046EF19F0A9EF09F0A0BF51EF19F0BC
:10329200A05108E19F05D8A051EF19F053EF19F0A2
:1032A200A9EF09F072C1D9FF73C1DAFFDFCF74F160
:1032B200020EDE26DFCF75F1000EDD2274C1D9FFCA
:1032C20075C1DAFFDECF9DF1DDCF9EF19DC1D9FF41
:1032D2009EC1DAFF95C1DFFFA9EF09F070C1D9FFE6
:1032E20071C1DAFFDECF03F1DDCF04F1780E056F95
:1032F200100E066F000E086F020E076F6CEC3EF0A8
:10330200010103510411D8B489EF19F08BEF19F0C0
:10331200A7EF19F070C1D9FF71C1DAFFDECF03F157
:10332200DDCF04F1480E056F100E066F000E086F18
:10333200020E076F6CEC3EF0010103510411D8A498
:10334200A5EF19F0A7EF19F0F2EF19F0020E70C114
:10335200D9FF71C1DAFFDE26000EDD226EC158F1FF
:103362006FC159F1950E5A6F010E5B6FA7EC3AF0DF
:1033720058C19FF159C1A0F10101D151D211D8A474
:10338200C5EF19F0C7EF19F0A9EF09F0A0BFD2EF0E
:1033920019F0A05108E19F05D8A0D2EF19F0D4EF9F
:1033A20019F0A9EF09F072C1D9FF73C1DAFFDFCFBB
:1033B20074F1020EDE26DFCF75F1000EDD2274C13C
:1033C200D9FF75C1DAFFDECF9DF1DDCF9EF19DC140
:1033D200D9FF9EC1DAFF95C1DEFF96C1DDFFA9EFDD
:1033E20009F070C1D9FF71C1DAFFDECFF6FFDDCF80
:1033F200F7FF000EF86E0800F550780AD8B404EF13
:103402001AF006EF1AF01AEF1AF070C1D9FF71C163
:10341200DAFFDECFF6FFDDCFF7FF000EF86E080011
:10342200F550580AD8A418EF1AF01AEF1AF064EF00
:103432001AF070C1D9FF71C1DAFFDE2A000EDD2257
:103442006EC158F16FC159F1950E5A6F010E5B6F43
:10345200A7EC3AF058C19FF159C1A0F10101D15135
:10346200D211D8A437EF1AF039EF1AF0A9EF09F008
:10347200A0BF44EF1AF0A05108E19F05D8A044EF85
:103482001AF046EF1AF0A9EF09F072C1D9FF73C121
:10349200DAFFDFCF74F1020EDE26DFCF75F1000E08
:1034A200DD2274C1D9FF75C1DAFFDECF9DF1DDCF18
:1034B2009EF19DC1D9FF9EC1DAFF95C1DEFF96C183
:1034C200DDFFA9EF09F070C1D9FF71C1DAFFDECFCC
:1034D20003F1DDCF04F17C0E056F100E066F000EB6
:1034E200086F020E076F6CEC3EF0010103510411EC
:1034F200D8B47EEF1AF080EF1AF09CEF1AF070C188
:10350200D9FF71C1DAFFDECF03F1DDCF04F14C0E3A
:10351200056F100E066F000E086F020E076F6CEC3F
:103522003EF0010103510411D8A49AEF1AF09CEF66
:103532001AF0EBEF1AF0020E70C1D9FF71C1DAFF77
:10354200DE26000EDD226EC158F16FC159F1950ED3
:103552005A6F010E5B6FA7EC3AF058C19FF159C147
:10356200A0F10101D151D211D8A4BAEF1AF0BCEFE7
:103572001AF0A9EF09F0A0BFC7EF1AF0A05108E1B5
:103582009F05D8A0C7EF1AF0C9EF1AF0A9EF09F00A
:1035920072C1D9FF73C1DAFFDFCF74F1020EDE26EA
:1035A200DFCF75F1000EDD2274C1D9FF75C1DAFFDC
:1035B200DECF9DF1DDCF9EF19DC1D9FF9EC1DAFF25
:1035C20095C1DEFF96C1DEFF97C1DEFF98C1DEFF27
:1035D200A9EF09F070C1D9FF71C1DAFFDECF03F1A3
:1035E200DDCF04F17B0E056F100E066F000E086F23
:1035F200030E076F6CEC3EF0010103510411D8B4C5
:1036020005EF1BF007EF1BF023EF1BF070C1D9FF92
:1036120071C1DAFFDECF03F1DDCF04F14B0E056F8E
:10362200100E066F000E086F030E076F6CEC3EF073
:10363200010103510411D8A421EF1BF023EF1BF069
:103642007AEF1BF0030E70C1D9FF71C1DAFFDE26DB
:10365200000EDD226EC158F16FC159F1950E5A6FFD
:10366200010E5B6FA7EC3AF058C19FF159C1A0F16E
:103672000101D151D211D8A441EF1BF043EF1BF04D
:10368200A9EF09F0A0BF4EEF1BF0A05108E19F0582
:10369200D8A04EEF1BF050EF1BF0A9EF09F072C15A
:1036A200D9FF73C1DAFFDFCF74F1020EDE26DFCF5E
:1036B20075F1000EDD2274C1D9FF75C1DAFFDECFCC
:1036C2009DF1DDCF9EF19DC1D9FF9EC1DAFF95C16B
:1036D200DEFF96C1DEFF97C1DEFF98C1DEFF99C112
:1036E200DEFF9AC1DEFF9BC1DEFF9CC1DEFFA9EFB8
:1036F20009F070C1D9FF71C1DAFFDECF03F1DDCF6E
:1037020004F1D50E056F100E066F000E086F020E43
:10371200076F6CEC3EF0010103510411D8B494EF31
:103722001BF096EF1BF0B2EF1BF070C1D9FF71C115
:10373200DAFFDECF03F1DDCF04F1930E056F100E39
:10374200066F000E086F020E076F6CEC3EF001016F
:1037520003510411D8A4B0EF1BF0B2EF1BF009EF34
:103762001CF0020E70C1D9FF71C1DAFFDE26000E15
:10377200DD226EC158F16FC159F1950E5A6F010EDB
:103782005B6FA7EC3AF058C19FF159C1A0F101015A
:10379200D151D211D8A4D0EF1BF0D2EF1BF0A9EF78
:1037A20009F0A0BFDDEF1BF0A05108E19F05D8A0F2
:1037B200DDEF1BF0DFEF1BF0A9EF09F072C1D9FFBB
:1037C20073C1DAFFDFCF74F1020EDE26DFCF75F1AF
:1037D200000EDD2274C1D9FF75C1DAFFDECF9DF183
:1037E200DDCF9EF19DC1D9FF9EC1DAFF95C1DEFFFB
:1037F20096C1DEFF97C1DEFF98C1DEFF99C1DEFFF1
:103802009AC1DEFF9BC1DEFF9CC1DEFFA9EF09F07A
:1038120070C1D9FF71C1DAFFDECF03F1DDCF04F150
:10382200D80E056F100E066F000E086F020E076F9E
:103832006CEC3EF0010103510411D8B423EF1CF0EB
:1038420025EF1CF041EF1CF070C1D9FF71C1DAFF06
:10385200DECF03F1DDCF04F1960E056F100E066F79
:10386200000E086F020E076F6CEC3EF0010103516F
:103872000411D8A43FEF1CF041EF1CF090EF1CF0B4
:10388200020E70C1D9FF71C1DAFFDE26000EDD2201
:103892006EC158F16FC159F1950E5A6F010E5B6FEF
:1038A200A7EC3AF058C19FF159C1A0F10101D151E1
:1038B200D211D8A45FEF1CF061EF1CF0A9EF09F060
:1038C200A0BF6CEF1CF0A05108E19F05D8A06CEFDF
:1038D2001CF06EEF1CF0A9EF09F072C1D9FF73C1A1
:1038E200DAFFDFCF74F1020EDE26DFCF75F1000EB4
:1038F200DD2274C1D9FF75C1DAFFDECF9DF1DDCFC4
:103902009EF19DC1D9FF9EC1DAFF95C1DEFF96C12E
:10391200DEFF97C1DEFF98C1DEFFA9EF09F070C19B
:10392200D9FF71C1DAFFDECF03F1DDCF04F1DB0E87
:10393200056F100E066F000E086F020E076F6CEC1B
:103942003EF0010103510411D8B4AAEF1CF0ACEF10
:103952001CF0C8EF1CF070C1D9FF71C1DAFFDECFD5
:1039620003F1DDCF04F1990E056F100E066F000E04
:10397200086F020E076F6CEC3EF001010351041157
:10398200D8A4C6EF1CF0C8EF1CF013EF1DF0020E16
:1039920070C1D9FF71C1DAFFDE26000EDD226EC1D1
:1039A20058F16FC159F1950E5A6F010E5B6FA7EC7A
:1039B2003AF058C19FF159C1A0F10101D151D21180
:1039C200D8A4E6EF1CF0E8EF1CF0A9EF09F0A0BFC5
:1039D200F3EF1CF0A05108E19F05D8A0F3EF1CF013
:1039E200F5EF1CF0A9EF09F072C1D9FF73C1DAFF3C
:1039F200DFCF74F1020EDE26DFCF75F1000EDD227D
:103A020074C1D9FF75C1DAFFDECF9DF1DDCF9EF122
:103A12009DC1D9FF9EC1DAFF95C1DEFF96C1DDFFD0
:103A2200A9EF09F070C1D9FF71C1DAFFDECFF6FF4D
:103A3200DDCFF7FF000EF86E0800F550250AD8A476
:103A420025EF1DF027EF1DF036EF1DF070C1D9FFF5
:103A520071C1DAFFDE2A000EDD22CB4BCC2B000E29
:103A62006F6F010E6E6F7EEF1DF070C1D9FF71C1D5
:103A7200DAFFDE2A000EDD22D0EF12F06EC105F170
:103A82006FC106F129EC43F005C184F106C185F14D
:103A920070C1D9FF71C1DAFFDECFF6FFDDCFF7FFCC
:103AA200000EF86E0800F5500101746F756B8451B9
:103AB200741907E185517519D8A462EF1DF064EFFE
:103AC2001DF06FEF1DF070C1D9FF71C1DAFFDE2A60
:103AD200000EDD22CB4BCC2BD0EF12F084C103F1D0
:103AE20085C104F16EC105F16FC106F1C1EC43F06D
:103AF200FF0E01016F6FFE0E6E6F120001011E516B
:103B02001F11D8B487EF1DF089EF1DF095EF1DF05E
:103B12001EC1D9FF1FC1DAFF1CC1DEFF1DC1DDFFBF
:103B220095EF1DF01C4B1D2B010E366F1CC1D9FFEA
:103B32001DC1DAFF200EDE18D8B4A2EF1DF0A5EFEA
:103B42001DF0010EA6EF1DF0000E3B6F3C6B3B51CA
:103B52003C11D8A4AFEF1DF0B1EF1DF0D3EF1DF073
:103B6200F70E206FFF0E216F1CC1D9FF1DC1DAFFB6
:103B7200DF50226F22513B6F3C6B3BC123F13CC1B2
:103B820024F12051232721512423245109E1050E38
:103B9200235DD8A0CFEF1DF0D1EF1DF0D3EF1DF0C4
:103BA200000E366F36C126F1276B26512711D8A495
:103BB200DDEF1DF0DFEF1DF093EF1DF0000E386F0B
:103BC2002D0E3B193C11D8A4E9EF1DF0EBEF1DF0CF
:103BD200F1EF1DF0010E386F1C4B1D2BFDEF1DF098
:103BE2002B0E3B193C11D8A4F9EF1DF0FBEF1DF091
:103BF200FDEF1DF0EDEF1DF0000E416F02EF1EF024
:103C0200412B41511C25D96E000E1D21DA6EDF5069
:103C1200D8B40EEF1EF010EF1EF046EF1EF0415129
:103C22001C25D96E000E1D21DA6EDF50206F0A0EA0
:103C32004125F66EF76A100EF722F86A000EF82296
:103C42000800F5502019D8B429EF1EF02BEF1EF012
:103C520001EF1EF041511C25D96E000E1D21DA6EB6
:103C6200DF50206F010E4125F66EF76A100EF72223
:103C7200F86A000EF8220800F5502019D8B444EF73
:103C82001EF046EF1EF001EF1EF0020E41654CEFF2
:103C92001EF04EEF1EF07AEF1EF0000E3D6F000E8A
:103CA2003E6F800E3F6F7F0E406F1E511F11D8B4C2
:103CB2005DEF1EF05FEF1EF026EF26F0080E4119B1
:103CC200D8B466EF1EF068EF1EF06AEF1EF0030E26
:103CD200416F41511C25206F000E1D21216F1EC115
:103CE200D9FF1FC1DAFF20C1DEFF21C1DDFF26EFB0
:103CF20026F0000E416F7FEF1EF0412B41511C2533
:103D0200D96E000E1D21DA6EDF50D8B48BEF1EF093
:103D12008DEF1EF0C3EF1EF041511C25D96E000E2F
:103D22001D21DA6EDF50206F430E4125F66EF76AD1
:103D3200100EF722F86A000EF8220800F55020193A
:103D4200D8B4A6EF1EF0A8EF1EF07EEF1EF0415190
:103D52001C25D96E000E1D21DA6EDF50206F3B0E3E
:103D62004125F66EF76A100EF722F86A000EF82265
:103D72000800F5502019D8B4C1EF1EF0C3EF1EF0B1
:103D82007EEF1EF0030E4119D8A4CAEF1EF0CCEF4D
:103D92001EF03BEF1FF0DF0E036F100E046FEAEC14
:103DA20048F003C13DF104C13EF105C13FF106C136
:103DB20040F101011E511F11D8B4E2EF1EF0E4EFF1
:103DC2001EF026EF26F041511C27000E1D231CC1B8
:103DD200D9FF1DC1DAFF280EDE18D8A4F3EF1EF0BA
:103DE200F5EF1EF031EF1FF0000E416FFAEF1EF0FB
:103DF200412B41511C25D96E000E1D21DA6EDF5078
:103E0200D8B406EF1FF008EF1FF017EF1FF0415173
:103E12001C25D96E000E1D21DA6E290EDE18D8A4DB
:103E220015EF1FF017EF1FF0F9EF1EF041511C259F
:103E3200D96E000E1D21DA6E290EDE18D8A424EFE9
:103E42001FF026EF1FF031EF1FF04151206F216B61
:103E5200010E2027000E212320511C2721511D2352
:103E62001EC1D9FF1FC1DAFF1CC1DEFF1DC1DDFF6C
:103E720026EF26F0000E3C6F000E3B6F000E3D6FEA
:103E8200000E3E6F000E3F6F000E406F000E3A6F45
:103E9200000E396F000E416F50EF1FF0412B415160
:103EA2001C25D96E000E1D21DA6E300EDE18D8B434
:103EB2005DEF1FF05FEF1FF04FEF1FF04151D8B4DD
:103EC20065EF1FF067EF1FF003EF23F041511C2550
:103ED200D96E000E1D21DA6E780EDE18D8B474EF9A
:103EE2001FF076EF1FF085EF1FF041511C25D96EB0
:103EF200000E1D21DA6E580EDE18D8A483EF1FF0D3
:103F020085EF1FF003EF23F04151206F216B010E6B
:103F12002027000E212320511C2721511D23000E92
:103F2200416F95EF1FF0412B41511C25D96E000EB8
:103F32001D21DA6E300EDE18D8B4A2EF1FF0A4EF06
:103F42001FF094EF1FF0000E416F41511C25D96EF6
:103F5200000E1D21DA6E700EDE18D8B4B3EF1FF01A
:103F6200B5EF1FF045EF21F041511C25D96E000E2F
:103F72001D21DA6E500EDE18D8A4C2EF1FF0C4EF76
:103F82001FF0C6EF1FF045EF21F041511C25D96EFD
:103F9200000E1D21DA6E2E0EDE18D8A4D3EF1FF00C
:103FA200D5EF1FF0D9EF1FF03889412B45EF21F0F3
:103FB20041511C25D96E000E1D21DA6EDF50206F93
:103FC2002051036F046BC1EC44F001010351041151
:103FD200D8B4EEEF1FF0F0EF1FF06CEF20F0000E00
:103FE200376FD00E206FFF0E216F41511C25D96E05
:103FF200000E1D21DA6EDF50226F236B2051222723
:104002002151232323510AE10A0E225DD8A00CEF8D
:1040120020F00FEF20F0010E10EF20F0000E286FBD
:10402200296B28512911D8B419EF20F01BEF20F089
:1040320026EF20F041511C25D96E000E1D21DA6EAB
:10404200DF50D00F376F37EF20F041511C25D96E6A
:10405200000E1D21DA6EDF50206F2051096F0A6BAE
:1040620094EC45F001010951C90F376F3CBF45EF90
:1040720020F03C5107E1080E3B5DD8B043EF20F041
:1040820045EF20F064EF20F03B510708206FD890F5
:104092002037D890203737C121F1226B236B246B54
:1040A200202B59EF20F0D89021372237233724379D
:1040B200202F54EF20F021513D1322513E13235162
:1040C2003F13245140133B4B3C2B040E3927000E67
:1040D2003A2376EF20F0000E1C6F000E1D6F000ECB
:1040E2001E6F000E1F6F47EF26F0412BA6EF1FF049
:1040F20041511C25D96E000E1D21DA6E700EDE189C
:10410200D8B486EF20F088EF20F04CEF21F0415137
:104112001C25D96E000E1D21DA6E500EDE18D8A4B1
:1041220095EF20F097EF20F099EF20F04CEF21F07F
:1041320041511C25D96E000E1D21DA6E300EDE189B
:10414200D8A4A6EF20F0A8EF20F0B7EF20F03B5163
:104152003C11D8A4AFEF20F0B1EF20F0B7EF20F080
:10416200FC0E3927FF0E3A2344EF21F041511C2562
:10417200D96E000E1D21DA6EDF50206F2051036FC1
:10418200046BC1EC44F0010103510411D8B4CCEF2B
:1041920020F0CEEF20F044EF21F0000E376FD00E6A
:1041A200206FFF0E216F41511C25D96E000E1D217B
:1041B200DA6EDF50226F236B2051222721512323F5
:1041C20023510AE10A0E225DD8A0EAEF20F0EDEFBA
:1041D20020F0010EEEEF20F0000E2A6F2B6B2A5119
:1041E2002B11D8B4F7EF20F0F9EF20F004EF21F013
:1041F20041511C25D96E000E1D21DA6EDF50D00F01
:10420200376F15EF21F041511C25D96E000E1D218B
:10421200DA6EDF50206F2051096F0A6B94EC45F083
:1042220001010951C90F376F3CBF23EF21F03C5107
:1042320007E1080E3B5DD8B021EF21F023EF21F01A
:1042420042EF21F03B510708206FD8902037D890D9
:10425200203737C121F1226B236B246B202B37EFE0
:1042620021F0D8902137223723372437202F32EFFD
:1042720021F021513D1322513E1323513F1324516A
:1042820040133B4B3C2B412B38B94AEF21F04CEF0A
:1042920021F079EF20F041511C25D96E000E1D212D
:1042A200DA6E700EDE18D8B459EF21F05BEF21F010
:1042B20074EF21F041511C25D96E000E1D21DA6EDA
:1042C200500EDE18D8B468EF21F06AEF21F074EFD7
:1042D20021F0000E1C6F000E1D6F000E1E6F000EEF
:1042E2001F6F47EF26F0412B41511C25D96E000E5E
:1042F2001D21DA6E2B0EDE18D8A482EF21F084EF96
:1043020021F087EF21F0412B98EF21F041511C253C
:10431200D96E000E1D21DA6E2D0EDE18D8A494EF90
:1043220021F096EF21F098EF21F03887412B41518F
:104332001C27000E1D23000E416FA1EF21F0412B1F
:1043420041511C25D96E000E1D21DA6E300EDE1889
:10435200D8B4AEEF21F0B0EF21F0A0EF21F0000EC3
:104362003C6F000E3B6FE3EF21F04151D8B4BCEF3C
:1043720021F0BEEF21F0CCEF21F03BC103F13CC1B3
:1043820004F1000E066F0A0E056FB0EC48F003C18F
:104392003BF104C13CF1D00E0101206FFF0E216FF1
:1043A20041511C25D96E000E1D21DA6EDF50226F9D
:1043B200236B205122272151232322513B272351B2
:1043C2003C23412BD00E206FFF0E216F41511C2543
:1043D200D96E000E1D21DA6EDF50226F236B205141
:1043E20022272151232323510AE10A0E225DD8A05C
:1043F200FDEF21F000EF22F0010E01EF22F0000E9E
:104402002C6F2D6B2C512D11D8A40AEF22F00CEF3A
:1044120022F0B6EF21F04151D8A412EF22F014EFAE
:1044220022F01EEF22F0000E1C6F000E1D6F000E18
:104432001E6F000E1F6F47EF26F038A723EF22F002
:1044420025EF22F029EF22F03B6D3C1FD8B03C2B28
:104452003B5139273C513A231E511F11D8B434EF36
:1044620022F036EF22F044EF22F041511C25206F5A
:10447200000E1D21216F1EC1D9FF1FC1DAFF20C10D
:10448200DEFF21C1DDFF3D513E113F114011D8A495
:104492004DEF22F04FEF22F059EF22F0000E1C6F89
:1044A200000E1D6F000E1E6F000E1F6F47EF26F0ED
:1044B200FF0E3D15206F000E3E15216F000E3F15B9
:1044C200226F000E4015236F23512211211109E1A1
:1044D200810E205DD8A070EF22F072EF22F084EFFF
:1044E20022F0000E3D27010E3E23000E3F23000E58
:1044F200402384EF22F0D8903D373E373F37403794
:104502003907D8A03A0740AF89EF22F08BEF22F0AB
:104512007CEF22F03AAF97EF22F0830E395DFF0E67
:104522003A59D8B097EF22F099EF22F0A5EF22F096
:10453200FF0E3A6F810E396F000E3D6F000E3E6F17
:10454200000E3F6F000E406F810E391908E13A29C3
:10455200D8B4AEEF22F0B0EF22F0B8EF22F0D8904C
:104562003D373E373F3740373907D8A03A073ABF81
:10457200C4EF22F03A5109E1800E395DD8A0C4EFB0
:1045820022F0C6EF22F0D2EF22F0000E3D6F000EB5
:104592003E6F000E3F6F000E406F000E3A6F800EAE
:1045A200396F090E206FD89040333F333E333D338D
:1045B200202FD4EF22F0FF0E3D17FF0E3E177F0E85
:1045C2003F17000E40177F0E3925206F000E3A214B
:1045D200216FFF0E2015226F236B246B256B170EA4
:1045E200D8902237233724372537E82EF1EF22F0EF
:1045F20022513D1323513E1324513F1325514013A1
:1046020026EF26F038B908EF23F00AEF23F01CEF6B
:1046120023F01CC1D9FF1DC1DAFF2E0EDE18D8A46B
:1046220015EF23F017EF23F01CEF23F038891C4B12
:104632001D2B03EF23F0D00E206FFF0E216F1CC144
:10464200D9FF1DC1DAFFDF50226F236B20512227D1
:104652002151232323510AE10A0E225DD8A034EF0F
:1046620023F037EF23F0010E38EF23F0000E2E6F08
:104672002F6B2E512F11D8A441EF23F043EF23F0DB
:1046820045EF23F094EF23F03883090E3B193C11D8
:10469200D8B44EEF23F050EF23F087EF23F038A980
:1046A20055EF23F057EF23F05AEF23F03907D8A044
:1046B2003A073B4B3C2B3DC103F13EC104F13FC1E4
:1046C20005F140C106F10A0E076F000E086F000ED9
:1046D200096F000E0A6FFAEC44F003C13DF104C108
:1046E2003EF105C13FF106C140F11CC1D9FF1DC118
:1046F200DAFFDF500101206FD00E202720513D2725
:10470200000E3E233F23402390EF23F038B98CEF75
:1047120023F08EEF23F090EF23F0394B3A2B1C4B12
:104722001D2B03EF23F0000E3C6F000E3B6F1CC1EC
:10473200D9FF1DC1DAFF650EDE18D8B4A3EF23F04E
:10474200A5EF23F0B2EF23F01CC1D9FF1DC1DAFFA0
:10475200450EDE18D8A4B0EF23F0B2EF23F0A3EF9A
:1047620024F01C4B1D2B1CC1D9FF1DC1DAFF2D0EDD
:10477200DE18D8A4BFEF23F0C1EF23F0C6EF23F079
:1047820038871C4B1D2BD5EF23F01CC1D9FF1DC14F
:10479200DAFF2B0EDE18D8A4D1EF23F0D3EF23F0EB
:1047A200D5EF23F01C4B1D2B1CC1D9FF1DC1DAFF15
:1047B200300EDE18D8B4E0EF23F0E2EF23F0D3EFAF
:1047C20023F0D00E206FFF0E216F1CC1D9FF1DC137
:1047D200DAFFDF50226F236B20512227215123233E
:1047E20023510AE10A0E225DD8A0FAEF23F0FDEF71
:1047F20023F0010EFEEF23F0000E306F316B3051CB
:104802003111D8B407EF24F009EF24F098EF24F027
:104812001CC1D9FF1DC1DAFFDF50206FD00E202747
:1048220020513B6F3C6B1C4B1D2BD00E206FFF0E9B
:10483200216F1CC1D9FF1DC1DAFFDF50226F236B2C
:10484200205122272151232323510AE10A0E225DFE
:10485200D8A02EEF24F031EF24F0010E32EF24F035
:10486200000E326F336B32513311D8B43BEF24F068
:104872003DEF24F098EF24F01CC1D9FF1DC1DAFFEF
:10488200DF50206FD00E20273BC103F13CC104F161
:10489200000E066F0A0E056FB0EC48F001012051C0
:1048A20003253B6F000E04213C6F1C4B1D2BD00EC9
:1048B200206FFF0E216F1CC1D9FF1DC1DAFFDF502F
:1048C200226F236B205122272151232323510AE1F6
:1048D2000A0E225DD8A070EF24F073EF24F0010ECF
:1048E20074EF24F0000E346F356B34513511D8B4A7
:1048F2007DEF24F07FEF24F098EF24F01CC1D9FF64
:104902001DC1DAFFDF50206FD00E20273BC103F11B
:104912003CC104F1000E066F0A0E056FB0EC48F0C0
:104922000101205103253B6F000E04213C6F38A783
:104932009DEF24F09FEF24F0A3EF24F03B6D3C1F8A
:10494200D8B03C2B3B5139273C513A231E511F1101
:10495200D8B4AEEF24F0B0EF24F0BFEF24F038A3C8
:10496200B5EF24F0B7EF24F0BFEF24F01EC1D9FF5A
:104972001FC1DAFF1CC1DEFF1DC1DDFF3DC103F116
:104982003EC104F13FC105F140C106F1000ECBEC7E
:1049920039F003C13DF104C13EF105C13FF106C149
:1049A20040F13DC103F13EC104F13FC105F140C1F7
:1049B20006F1000E0101076F000E086F000E096F6D
:1049C200000E0A6F88EC41F00101D8A0EBEF24F051
:1049D200EDEF24F0F7EF24F0000E1C6F000E1D6FB8
:1049E200000E1E6F000E1F6F47EF26F03ABFFEEF5C
:1049F20024F0FCEF24F08FEF25F0396D3A1FD8B088
:104A02003A2B23EF25F03DC103F13EC104F13FC132
:104A120005F140C106F1F90E076F020E086F150E7F
:104A2200096F500E0A6FF1EC2EF003C13DF104C183
:104A32003EF105C13FF106C140F10101F60E3927F1
:104A4200FF0E3A233ABF31EF25F03A5107E10A0E41
:104A5200395DD8B02FEF25F031EF25F004EF25F0C6
:104A620051EF25F03DC103F13EC104F13FC105F113
:104A720040C106F1000E076F000E086F200E096F8D
:104A8200410E0A6FF1EC2EF003C13DF104C13EF17B
:104A920005C13FF106C140F101013907D8A03A072B
:104AA20039513A11D8A458EF25F05AEF25F033EFD7
:104AB20025F03DC103F13EC104F13FC105F140C102
:104AC20006F1000E076F000E086F800E096F000ED0
:104AD2000A6F06EC3FF00101D8B072EF25F074EFD7
:104AE20025F026EF26F038A179EF25F07BEF25F0AF
:104AF20085EF25F0000E1C6F000E1D6F800E1E6FDD
:104B0200800E1F6F47EF26F0000E1C6F000E1D6F08
:104B1200800E1E6F000E1F6F47EF26F03ABF9AEF0E
:104B220025F03A5108E13905D8A09AEF25F09CEF1B
:104B320025F026EF26F0BDEF25F03DC103F13EC181
:104B420004F13FC105F140C106F1F90E076F020EF3
:104B5200086F150E096F500E0A6F00EC2BF003C19F
:104B62003DF104C13EF105C13FF106C140F1010131
:104B7200F60E3927FF0E3A233A5107E10A0E395D44
:104B8200D8B0C6EF25F0C8EF25F09EEF25F0E8EF8C
:104B920025F03DC103F13EC104F13FC105F140C121
:104BA20006F1000E076F000E086F200E096F410E0E
:104BB2000A6F00EC2BF003C13DF104C13EF105C1C7
:104BC2003FF106C140F101013907D8A03A07395136
:104BD2003A11D8A4EFEF25F0F1EF25F0CAEF25F056
:104BE200FF0E036FFF0E046F7F0E056F7F0E066FC1
:104BF2003DC107F13EC108F13FC109F140C10AF1CF
:104C020006EC3FF00101D8B009EF26F00BEF26F0D9
:104C120026EF26F038A110EF26F012EF26F01CEF57
:104C220026F0000E1C6F000E1D6F800E1E6F800E90
:104C32001F6F47EF26F0000E1C6F000E1D6F800ED7
:104C42001E6F000E1F6F47EF26F038A12BEF26F0E4
:104C52002DEF26F03FEF26F03DC103F13EC104F1F6
:104C62003FC105F140C106F1DAEC47F003C13DF165
:104C720004C13EF105C13FF106C140F13DC11CF145
:104C82003EC11DF13FC11EF140C11FF1120021EED4
:104C920045F0070EDE6AE806FDE21BC14DF11CC1BC
:104CA2004EF101014D514E11D8B45AEF26F05CEF8E
:104CB20026F0AEEF28F04DC1D9FF4EC1DAFFDF502A
:104CC200D8A466EF26F068EF26F06AEF26F0AEEF82
:104CD20028F04DC1D9FF4EC1DAFFDF504F6F7AEF96
:104CE20026F04D4B4E2B4DC1D9FF4EC1DAFFDF509E
:104CF2004F6F010E396F200E4F19D8B483EF26F093
:104D020085EF26F09DEF26F0F70E236FFF0E246F3E
:104D12004F51256F266B23512527245126232651D7
:104D220009E1050E255DD8A099EF26F09BEF26F04C
:104D32009DEF26F0000E396F39C133F1346B3351D8
:104D42003411D8A4A7EF26F0A9EF26F072EF26F0CF
:104D5200000E436F000E3A6F000E446F2D0E4F1976
:104D6200D8A4B6EF26F0B8EF26F0C4EF26F0010E75
:104D7200436F4D4B4E2B4DC1D9FF4EC1DAFFDF5071
:104D82004F6FCFEF26F02B0E4F19D8A4CBEF26F0A2
:104D9200CDEF26F0CFEF26F0BAEF26F0300E4F1906
:104DA200D8A4D6EF26F0D8EF26F022EF27F04D4B0D
:104DB2004E2B4DC1D9FF4EC1DAFFDF504F6F1F514D
:104DC2002011D8B4E7EF26F0E9EF26F0F3EF26F052
:104DD200100E1F192011D8A4F1EF26F0F3EF26F0E0
:104DE20013EF27F0780E4F19D8B4FAEF26F0FCEF44
:104DF20026F005EF27F0580E4F19D8A403EF27F03D
:104E020005EF27F013EF27F0000E206F100E1F6F33
:104E12004D4B4E2B4DC1D9FF4EC1DAFFDF504F6FC4
:104E220022EF27F0010E3A6F1F512011D8A41CEF78
:104E320027F01EEF27F022EF27F0000E206F080E5A
:104E42001F6F1F512011D8A429EF27F02BEF27F055
:104E52002FEF27F0000E206F0A0E1F6F2151D8B4DA
:104E620035EF27F037EF27F063EF27F04351D8A44F
:104E72003DEF27F03FEF27F051EF27F0FF0E3B6F9A
:104E8200FF0E3C6FFF0E3D6FFF0E3E6FFF0E3F6F3A
:104E9200FF0E406FFF0E416F7F0E426F6BEF27F0E8
:104EA200000E3B6F000E3C6F000E3D6F000E3E6F1A
:104EB200000E3F6F000E406F000E416F800E426F7A
:104EC2006BEF27F03B693C693D693E693F69406988
:104ED2004169426945C12BF146C12CF147C12DF10F
:104EE20048C12EF149C12FF14AC130F14BC131F114
:104EF2004CC132F19F0E236FFF0E246F4F51256F6D
:104F0200266B200E2513000E26132351252724512C
:104F1200262326510AE11A0E255DD8A093EF27F029
:104F220096EF27F0010E97EF27F0000E356F366BE4
:104F320035513611D8B4A0EF27F0A2EF27F0ADEF2C
:104F420027F04FC109F10A6B94EC45F001010951B8
:104F5200C90F4F6FD2EF27F0D00E236FFF0E246FD1
:104F62004F51256F266B2351252724512623265185
:104F72000AE10A0E255DD8A0C1EF27F0C4EF27F0A1
:104F8200010EC5EF27F0000E376F386B375138111D
:104F9200D8B4CEEF27F0D0EF27F08EEF28F0300E06
:104FA2004F5F4F51236F246B1F51235D2451800AA1
:104FB200256F2051800A2559D8A0E2EF27F0E4EFAF
:104FC20027F0E6EF27F08EEF28F04451D8A4ECEF5B
:104FD20027F0EEEF27F082EF28F01FC103F120C186
:104FE20004F1000E04BFFF0E056F066F076F086F16
:104FF200096F0A6F45C10BF146C10CF147C10DF1B2
:1050020048C10EF149C10FF14AC110F14BC111F172
:105012004CC112F1D9EC42F003C123F104C124F1D5
:1050220005C125F106C126F107C127F108C128F102
:1050320009C129F10AC12AF101014F512325456F06
:10504200000E2421466F000E2521476F000E2621F7
:10505200486F000E2721496F000E28214A6F000E6B
:1050620029214B6F000E2A214C6F2B51455D2C518B
:1050720046592D5147592E5148592F5149593051AE
:105082004A5931514B5932514C59D8A04BEF28F063
:105092004DEF28F06CEF28F02151D8B453EF28F0EF
:1050A20055EF28F082EF28F045513B5D46513C59BF
:1050B20047513D5948513E5949513F594A5140592A
:1050C2004B5141594C514259D8B06AEF28F06CEF1C
:1050D20028F082EF28F03BC145F13CC146F13DC1C9
:1050E20047F13EC148F13FC149F140C14AF141C1D6
:1050F2004BF142C14CF1000ED46F220ED36F010E60
:10510200446F4D4B4E2B4DC1D9FF4EC1DAFFDF50DC
:105112004F6F010E3A6F6BEF27F04451D8A494EF12
:1051220028F096EF28F0AEEF28F04351D8B49CEF68
:1051320028F09EEF28F0AEEF28F04C1F4B1F4A1FBD
:10514200491F481F471F461F456D000E4623472330
:10515200482349234A234B234C231D511E11D8B403
:10516200B5EF28F0B7EF28F0CBEF28F03A51D8A4EA
:10517200BDEF28F0BFEF28F0C3EF28F01BC14DF1BF
:105182001CC14EF11DC1D9FF1EC1DAFF4DC1DEFFA8
:105192004EC1DDFF45C11BF146C11CF147C11DF1E6
:1051A20048C11EF149C11FF14AC120F14BC121F191
:1051B2004CC122F112000101DA51D8A4E3EF28F028
:1051C200E5EF28F0E7EF28F0FFEF2AF0060E036F75
:1051D200040E046F000E056F020E066F000E086FBC
:1051E200030E076F06EC44F0000E0101036F040E7C
:1051F200046F000E056F020E066F000E086F050E9B
:10520200076F06EC44F0000E0401096F000E056FF3
:10521200060E0101036F040E046F8B0E056F100E54
:10522200066F49EC44F0010103510411D8A41CEFAC
:1052320029F01EEF29F03EEF29F0070EDB19D8A462
:1052420025EF29F027EF29F03EEF29F0000E0001AB
:10525200EC6F010EEB6F030E0101AB6F020EAC6F30
:10526200360EAD6F100EAE6FF60EAF6F000EB06F52
:10527200F7EC47F0F28A21EF2AF00001EB51EC1132
:10528200D8B446EF29F048EF29F076EF29F0060E60
:105292000101036F040E046F830E056F100E066F7B
:1052A20049EC44F0010103510411D8A45BEF29F049
:1052B2005DEF29F076EF29F0070EDB19D8A464EF31
:1052C20029F066EF29F076EF29F0030EAB6F020E9C
:1052D200AC6F360EAD6F100EAE6FF40EAF6F000EE8
:1052E200B06FF7EC47F021EF2AF00001EB51EC111F
:1052F200D8B47EEF29F080EF29F0D1EF29F0060E25
:105302000101036F040E046F8F0E056F100E066FFE
:1053120049EC44F0010103510411D8A493EF29F0A0
:1053220095EF29F0D1EF29F0070EDB19D8A49CEFF5
:1053320029F09EEF29F0D1EF29F0030EAB6F020E98
:10534200AC6F360EAD6F100EAE6FF20EAF6F000E79
:10535200B06FF7EC47F00001F251F311D8A4B4EFAB
:1053620029F0B6EF29F0C0EF29F0000EE66F000E2B
:10537200E56F000EE46F000EE36F21EF2AF0F2C03A
:1053820003F1F3C004F1000E0101066F640E056F14
:1053920067EC40F003C1E5F004C1E6F021EF2AF02A
:1053A2000001EB51EC11D8B4D9EF29F0DBEF29F071
:1053B20021EF2AF0060E0101036F040E046F870E1F
:1053C200056F100E066F49EC44F001010351041100
:1053D200D8A4EEEF29F0F0EF29F021EF2AF0030E26
:1053E200AB6F020EAC6F310EAD6F100EAE6FDE0EF4
:1053F200AF6F010EB06FF7EC47F00101DE05DF1170
:10540200D8A406EF2AF008EF2AF00FEF2AF0000ED8
:10541200D66F010ED56FF28621EF2AF0DE51DF1131
:10542200D8A416EF2AF018EF2AF021EF2AF0000E86
:10543200D66F000ED56FF296000EDD6F21EF2AF0C7
:105442000101D505D611D8A429EF2AF02BEF2AF0B5
:10545200D2EF2AF0000E036F040E046F130E056FD5
:10546200100E066F49EC44F0010103510411D8A457
:105472003DEF2AF03FEF2AF04CEF2AF0050EDB1940
:10548200D8A446EF2AF048EF2AF04CEF2AF0010E9A
:10549200DD6FFCEF2AF0000E036F040E046F190E8D
:1054A200056F100E066F49EC44F00101035104111F
:1054B200D8A45EEF2AF060EF2AF06DEF2AF0050E15
:1054C200DB19D8A467EF2AF069EF2AF06DEF2AF012
:1054D200050EDD6FFCEF2AF0000E036F040E046F61
:1054E2001F0E056F100E066F49EC44F001010351C7
:1054F2000411D8A47FEF2AF081EF2AF08EEF2AF070
:10550200050EDB19D8A488EF2AF08AEF2AF08EEF75
:105512002AF0040EDD6FFCEF2AF0000E036F040E7A
:10552200046F250E056F100E066F49EC44F0010161
:1055320003510411D8A4A0EF2AF0A2EF2AF0AFEF92
:105542002AF0050EDB19D8A4A9EF2AF0ABEF2AF056
:10555200AFEF2AF0030EDD6FFCEF2AF0000E036FAF
:10556200040E046F2B0E056F100E066F49EC44F00B
:10557200010103510411D8A4C1EF2AF0C3EF2AF0AC
:10558200D0EF2AF0050EDB19D8A4CAEF2AF0CCEF2F
:105592002AF0D0EF2AF0020EDD6FFCEF2AF0FCEFCA
:1055A2002AF00001EB51EC11D8B4DAEF2AF0DCEF6B
:1055B2002AF0FCEF2AF0060E0101036F040E046FBD
:1055C2007F0E056F100E066F49EC44F00101035186
:1055D2000411D8A4EFEF2AF0F1EF2AF0FCEF2AF041
:1055E200030EDB19D8A4F8EF2AF0FAEF2AF0FCEF49
:1055F2002AF03BEC49F0000E0101DA6F12000101C2
:105602000651800B0F6F06510625156F05AF0CEF83
:105612002BF00EEF2BF00FEF2BF015811551D8B4B4
:1056220015EF2BF017EF2BF02AEF2BF01529D8A44A
:105632001DEF2BF01FEF2BF027EF2BF0000E036F67
:10564200000E046F000E056F000E066F058F32EF1D
:105652002BF0000E036F000E046F000E056F000E9C
:10566200066F0A51800B0F1B0A510A25106F09AFF2
:105672003DEF2BF03FEF2BF040EF2BF0108110515C
:10568200D8B446EF2BF048EF2BF05BEF2BF010294C
:10569200D8A44EEF2BF050EF2BF058EF2BF0000E6A
:1056A200076F000E086F000E096F000E0A6F098F58
:1056B20063EF2BF0000E076F000E086F000E096FEC
:1056C200000E0A6F1051D8B469EF2BF06BEF2BF07C
:1056D20073EF2BF01551D8A471EF2BF073EF2BF071
:1056E2007DEF2BF0000E036F000E046F000E056FAE
:1056F200000E066F15EF2DF009510303F3CF1AF1D7
:10570200F4CF1BF11A51116F126B136B146B1B51F7
:10571200166F176B186B196B08510403F3CF1AF14C
:10572200F4CF1BF11A511127000E12231323142355
:105732001B511627000E172318231923075105039F
:10574200F3CF1AF1F4CF1BF11A511127000E1223D5
:10575200132314231B511627000E17231823192372
:1057620013C114F112C113F111C112F1116B0751DE
:105772000403F3CF1AF1F4CF1BF11A5111271B5175
:105782001223000E1323000E142308510303F3CF38
:105792001AF1F4CF1BF11A5111271B511223000EDB
:1057A2001323000E142313C114F112C113F111C1FA
:1057B20012F1116B07510303F3CF1AF1F4CF1BF16E
:1057C2001A5111271B511223000E1323000E14230A
:1057D20009510403F3CF1AF1F4CF1BF11A51162722
:1057E2001B511723000E1823000E1923085105031D
:1057F200F3CF1AF1F4CF1BF11A5116271B511723BD
:10580200000E1823000E192309510503F3CF1AF1D4
:10581200F4CF1BF11A510B6F1B510C6F0D6B0E6BFA
:105822000DC10EF10CC10DF10BC10CF10B6B0B5143
:1058320016270C5117230D5118230E51192311C18C
:105842000BF112C10CF113C10DF114C10EF1190EBD
:1058520030EF2CF0D8900E330D330C330B33E82E8F
:105862002BEF2CF00B5116270C5117230D51182337
:105872000E51192313C114F112C113F111C112F106
:10588200116B105115C10BF10C6B0B27000E0C2381
:10589200820E0B251A6FFF0E0C211B6F66EF2CF088
:1058A200D890163717371837193714AF5BEF2CF02B
:1058B2005DEF2CF05EEF2CF01681D8901137123785
:1058C200133714371A07D8A01B0718AF6BEF2CF049
:1058D2006DEF2CF051EF2CF0000E106F14AF74EF3F
:1058E2002CF076EF2CF09AEF2CF0FF0E11150B6FC7
:1058F200FF0E12150C6FFF0E13150D6F7F0E141590
:105902000E6F0B510C110D110E11D8B48BEF2CF040
:105912008DEF2CF091EF2CF0010E106F9AEF2CF01E
:1059220016A196EF2CF098EF2CF09AEF2CF08DEF59
:105932002CF01051D8B4A0EF2CF0A2EF2CF0C6EF4F
:105942002CF0010E1627000E17231823192319A174
:10595200ADEF2CF0AFEF2CF0C6EF2CF016C10BF12F
:1059620017C10CF118C10DF119C10EF10E350E332C
:105972000D330C330B330BC116F10CC117F10DC1F2
:1059820018F10EC119F11A4B1B2B1BBFD1EF2CF0D2
:105992001B5108E11A29D8A0D1EF2CF0D3EF2CF03B
:1059A200DDEF2CF0000E166F000E176F800E186FD1
:1059B2007F0E196F0BEF2DF01BBFEAEF2CF01B517E
:1059C20006E11A05D8B0E8EF2CF0EAEF2CF0F6EF7A
:1059D2002CF0000E166F000E176F000E186F000EDF
:1059E200196F000E0F6F0BEF2DF01AC115F1FF0E9C
:1059F2001617FF0E17177F0E1817000E191715A18D
:105A020005EF2DF007EF2DF008EF2DF0188FD8904D
:105A12001531196F0F51191316C103F117C104F192
:105A220018C105F119C106F1120045C0D9FF46C0DF
:105A3200DAFFDECFF6FFDDCFF7FF000EF86E0800CB
:105A4200F550250AD8A428EF2DF02AEF2DF0D3EF38
:105A52002EF045C0D9FF46C0DAFFDE2A000EDD2255
:105A6200000E0001D86F000ED76FD7C0DBF0D8C090
:105A7200DCF0D969DA69000E566E000E556E8FEFB2
:105A82002DF00001DB8145C0D9FF46C0DAFFDE2AD6
:105A9200000EDD228FEF2DF00001DB8344EF2DF0AD
:105AA2000001DB8544EF2DF00001DB8744EF2DF090
:105AB2000001DB8944EF2DF0000E566E010E556E8B
:105AC2008FEF2DF045C0D9FF46C0DAFFDECFF6FFDB
:105AD200DDCFF7FF000EF86E0800F550496E4A6AF6
:105AE2004A50000AD8B478EF2DF05DEF2DF04950FE
:105AF200200AD8B455EF2DF0030AD8B459EF2DF08F
:105B0200080AD8B451EF2DF0060AD8B442EF2DF0AE
:105B12001D0AD8B44DEF2DF05DEF2DF05550561003
:105B2200D8B496EF2DF098EF2DF063EF2DF0000131
:105B3200DBA19EEF2DF0A0EF2DF0A1EF2DF0DB9376
:105B420045C0D9FF46C0DAFFDECFF6FFDDCFF7FF53
:105B5200000EF86E0800F5502A0AD8A4B3EF2DF013
:105B6200B5EF2DF0DEEF2DF045C0D9FF46C0DAFFCC
:105B7200DE2A000EDD2247C0D9FF48C0DAFFDFCFA0
:105B820049F0020EDE26DFCF4AF0000EDD2249C0C8
:105B9200D9FF4AC0DAFFDECFD7F0DDCFD8F0D8BFC9
:105BA200D7EF2DF0D5EF2DF023EF2EF0DB81D76D5F
:105BB200D81FD8B0D82B23EF2EF045C0D9FF46C04E
:105BC200DAFFDECF08F0DDCF09F051EC3CF008C07F
:105BD200D7F009C0D8F0F5EF2DF045C0D9FF46C087
:105BE200DAFFDE2A000EDD22D00E496EFF0E4A6E6B
:105BF20045C0D9FF46C0DAFFDECFF6FFDDCFF7FFA3
:105C0200000EF86E0800F5504B6E4C6A49504B2658
:105C12004A504C224C500AE10A0E4B5CD8A014EFB9
:105C22002EF017EF2EF0010E18EF2EF0000E576E29
:105C3200586A57505810D8A421EF2EF023EF2EF0B7
:105C4200EEEF2DF045C0D9FF46C0DAFFDECFF6FFFA
:105C5200DDCFF7FF000EF86E0800F550780AD8B4D1
:105C620035EF2EF037EF2EF04BEF2EF045C0D9FF77
:105C720046C0DAFFDECFF6FFDDCFF7FF000EF86E8B
:105C82000800F550580AD8A449EF2EF04BEF2EF039
:105C92009BEF2EF045C0D9FF46C0DAFFDECFF6FFFC
:105CA200DDCFF7FF000EF86E0800F5CF59F045C0C2
:105CB200D9FF46C0DAFFDE2A000EDD2247C0D9FF37
:105CC20048C0DAFFDFCF49F0020EDE26DFCF4AF00E
:105CD200000EDD2249C0D9FF4AC0DAFFDECF4BF009
:105CE200DDCF4CF04BC04DF04CC04EF04F6A506AC5
:105CF200516A526A536A546A43C01CF044C01DF090
:105D02004DC01EF04EC01FF04FC020F050C021F019
:105D120051C022F052C023F053C024F054C025F0E9
:105D220059C026F0BFEC30F01CC043F01DC044F057
:105D3200F0EF2EF045C0D9FF46C0DAFFDECFF6FF06
:105D4200DDCFF7FF000EF86E0800F550250AD8A443
:105D5200ADEF2EF0AFEF2EF0C6EF2EF045C0D9FF1B
:105D620046C0DAFFDE2A000EDD22000E026E250E8C
:105D7200016E43C003F044C004F002EC40F0000E98
:105D8200446E010E436EF0EF2EF045C0D9FF46C0BF
:105D9200DAFFDE2A000EDD22000E446E000E436E94
:105DA200F0EF2EF045C0D9FF46C0DAFFDECFF6FF96
:105DB200DDCFF7FF000EF86E0800F550016E026AA3
:105DC20043C003F044C004F002EC40F045C0D9FFE8
:105DD20046C0DAFFDE2A000EDD22C0EF2EF01200EE
:105DE20001010651800B136F065106251A6F05AF8C
:105DF200FDEF2EF0FFEF2EF000EF2FF01A811A5177
:105E0200D8B406EF2FF008EF2FF01DEF2FF01A296C
:105E1200D8A40EEF2FF010EF2FF018EF2FF0000E96
:105E2200036F000E046F000E056F000E066F058FE4
:105E3200000E066F25EF2FF0000E036F000E046FA9
:105E4200000E056F000E066F0A51800B131B0A51DC
:105E52000A251B6F09AF30EF2FF032EF2FF033EF2F
:105E62002FF01B811B51D8B439EF2FF03BEF2FF0ED
:105E720050EF2FF01B29D8A441EF2FF043EF2FF062
:105E82004BEF2FF0000E076F000E086F000E096F28
:105E9200000E0A6F098F000E0A6F58EF2FF0000EE6
:105EA200076F000E086F000E096F000E0A6F075190
:105EB200081109110A11D8A461EF2FF063EF2FF036
:105EC2007BEF2FF0000E036F000E046F000E056FC4
:105ED200000E066F800E05137F0E06131351061374
:105EE20003C103F104C104F105C105F106C106F1C4
:105EF200BEEF30F01A51D8A481EF2FF083EF2FF0CC
:105F02008DEF2FF0000E036F000E046F000E056F71
:105F1200000E066FBEEF30F01B511AC10BF10C6B75
:105F22000B5F000E0C5B7F0E0B25146F000E0C2115
:105F3200156F03C10FF104C110F105C111F106C1C2
:105F420012F1000E036F000E046F000E056F000EBB
:105F5200066F000E166F000E176F000E186F000E00
:105F6200196F000E1B6FEEEF2FF01B51D8B4BCEF70
:105F72002FF0BEEF2FF0D5EF2FF0D8900F3710375C
:105F820011371237D890033704370537063719AF60
:105F9200CDEF2FF0CFEF2FF0D0EF2FF00381D8907D
:105FA200163717371837193707510F5D085110592F
:105FB200095111590A511259D8A0E2EF2FF0E4EF1A
:105FC2002FF0EDEF2FF0198D07510F5F0851105B85
:105FD2000951115B0A51125B1B2B190E1B65F4EF61
:105FE2002FF0F6EF2FF0B6EF2FF00F511011111125
:105FF2001211D8B4FFEF2FF001EF30F019EF30F0AB
:10600200168119EF30F0D890033704370537063779
:1060120019AF0EEF30F010EF30F011EF30F00381D6
:10602200D89016371737183719371407D8A015071D
:1060320005AF1EEF30F020EF30F004EF30F0000E2D
:106042001B6F19AF27EF30F029EF30F04DEF30F032
:10605200FF0E16150B6FFF0E17150C6FFF0E18159E
:106062000D6F7F0E19150E6F0B510C110D110E11C4
:10607200D8B43EEF30F040EF30F044EF30F0010E94
:106082001B6F4DEF30F003A149EF30F04BEF30F0D2
:106092004DEF30F040EF30F01B51D8B453EF30F0F9
:1060A20055EF30F079EF30F0010E0327000E042394
:1060B2000523062306A160EF30F062EF30F079EF9E
:1060C20030F003C10BF104C10CF105C10DF106C1A1
:1060D2000EF10E350E330D330C330B330BC103F1BE
:1060E2000CC104F10DC105F10EC106F1144B152BC3
:1060F20015BF84EF30F0155108E11429D8A084EFC0
:1061020030F086EF30F091EF30F0000E156F146929
:10611200000E036F000E046F000E056F000E066F77
:1061220015BF9EEF30F0155106E11405D8B09CEF73
:1061320030F09EEF30F0ACEF30F0000E156F000E35
:10614200146F000E036F000E046F000E056F000E39
:10615200066F000E136F14C11AF11AA1B3EF30F0DB
:10616200B5EF30F0B8EF30F0058FB9EF30F0059FA2
:10617200D8901A31066F6FEF2FF012000001DABFCC
:10618200C5EF30F0C7EF30F0C8EF30F0DB93DABF85
:10619200D5EF30F0DA5106E1D905D8B0D3EF30F0BF
:1061A200D5EF30F0DBEF30F0000E346E010E336EBF
:1061B200DFEF30F0D9C033F0DAC034F0D7C035F0B9
:1061C200D8C036F0DBA9E8EF30F0EAEF30F0EEEFBE
:1061D20030F0FE0E3526FF0E36221EC037F01FC0ED
:1061E20038F020C039F021C03AF022C03BF023C081
:1061F2003CF024C03DF025C03EF0000E406E1F0E64
:106202003F6E000E0201EF6FBAEF31F03F06D8A0E9
:1062120040060F0E3714416E426A42BE1AEF31F049
:10622200425009E10A0E415CD8A01AEF31F01CEF8E
:1062320031F024EF31F0570E4124416E000E42201E
:10624200426E2AEF31F0300E4124416E000E4220A0
:10625200426EBF0E276EFF0E286E2650296E2A6AE6
:106262002750292628502A222A500AE11A0E295C90
:10627200D8A03EEF31F041EF31F0010E42EF31F0A4
:10628200000E2F6E306A2F503010D8B44BEF31F021
:106292004DEF31F07DEF31F09F0E276EFF0E286E2D
:1062A200200E4110296E000E42102A6E2750292618
:1062B20028502A222A500AE11A0E295CD8A064EF3B
:1062C20031F067EF31F0010E68EF31F0000E316E00
:1062D200326A31503210D8B471EF31F073EF31F0CD
:1062E2007DEF31F041C007F042C008F0F3EC45F019
:1062F20007C041F008C042F0D00E3F24D96E020E12
:106302004020DA6E41C0DFFF3306D8A034063506DE
:10631200D8A0360637C027F038C028F039C029F097
:106322003AC02AF03BC02BF03CC02CF03DC02DF00F
:106332003EC02EF0050EA7EF31F0D8902E322D324E
:106342002C322B322A32293228322732E82E9EEF83
:1063520031F027C037F028C038F029C039F02AC000
:106362003AF02BC03BF02CC03CF02DC03DF02EC0CB
:106372003EF040BEC6EF31F0405009E1020E3F5CF4
:10638200D8A0C6EF31F0C8EF31F0F9EF31F0375055
:10639200381039103A103B103C103D103E10D8A472
:1063A200D5EF31F0D7EF31F007EF31F034BEE4EF43
:1063B20031F0345006E13304D8B0E2EF31F0E4EFCB
:1063C20031F007EF31F036BEEFEF31F0365008E131
:1063D2003504D8A0EFEF31F0F1EF31F0F9EF31F001
:1063E2000001DBB3F7EF31F0F9EF31F007EF31F0F5
:1063F2000001DBA9FFEF31F001EF32F017EF32F0CD
:106402003F06D8A04006D00E3F24D96E020E40208F
:10641200DA6E26C0DFFF3F06D8A04006D00E3F242A
:10642200D96E020E4020DA6E300EDF6E1CC011F003
:106432001DC012F0D00E3F24136E020E4020146EC7
:1064420035C015F036C016F0CAEC40F011C01CF091
:1064520012C01DF012000600E1CFA7F0E2CFA8F0B3
:10646200D9CFA9F0DACFAAF0F3CFABF0F4CFACF0EA
:10647200F6CFADF0F7CFAEF0F8CFAFF0F5CFB0F08A
:106482009EAA46EF32F048EF32F04EEF32F09E9A7B
:10649200000E016EAE5075EC43F09EA853EF32F041
:1064A20055EF32F06FEF32F09E98010E82EC48F019
:1064B2000009D8B45FEF32F061EF32F06BEF32F0E7
:1064C200ACA266EF32F068EF32F061EF32F0AC9AD4
:1064D2006FEF32F0010E2DEC41F0AD6EF2A474EFCD
:1064E20032F076EF32F061EF33F0C20ED76ED6683B
:1064F200F2940001DD4BDE2BF251F311D8B484EF9C
:1065020032F086EF32F088EF32F0E34BE42BF7BF44
:1065120093EF32F0F75108E1F605D8A093EF32F08D
:1065220095EF32F09BEF32F0F451F65FF551F75BE5
:106532009FEF32F0000EF76F000EF66F000EB26F93
:10654200040EB16FD890B135D96EB235DA6EBB0E8A
:10655200D926010EDA22DE04DE10D8A4B3EF32F01F
:10656200B5EF32F0BDEF32F0020EF16FB1C0E7F0DD
:10657200B2C0E8F0CDEF32F0B14BB22BB2BFCBEFED
:1065820032F0B25109E1080EB15DD8A0CBEF32F082
:10659200CDEF32F0A3EF32F0E751E811D8B4D4EFE7
:1065A20032F0D6EF32F0DAEF32F0F8EC37F061EF9A
:1065B20033F0E551E611D8B4E1EF32F0E3EF32F017
:1065C20054EF33F0E551E31907E1E651E419D8A499
:1065D200EDEF32F0EFEF32F054EF33F0C282C2B29D
:1065E200F5EF32F0F7EF32F0F0EF32F0C450000185
:1065F200A66FA56BC350A525B36F000EA621B46F7D
:10660200030EB45DD8A008EF33F00AEF33F019EFB0
:1066120033F0040EB45DD8B011EF33F013EF33F062
:1066220019EF33F02E0EEA6FE00EE96F4CEF33F004
:10663200020EB45DD8A020EF33F022EF33F031EF39
:1066420033F0030EB45DD8B029EF33F02BEF33F003
:1066520031EF33F02A0EEA6FF80EE96F4CEF33F0A8
:10666200B405D8A037EF33F039EF33F048EF33F009
:10667200020EB45DD8B040EF33F042EF33F048EF92
:1066820033F0270EEA6F100EE96F4CEF33F0230E52
:10669200EA6F280EE96F010EF16F000EE46F000E33
:1066A200E36FD6EF32F0EB51EC11D8B45BEF33F07D
:1066B2005DEF33F061EF33F0000EF16FD6EF32F0A1
:1066C2009EAC66EF33F068EF33F069EF33F09E9CD7
:1066D200B0C0F5FFAFC0F8FFAEC0F7FFADC0F6FF28
:1066E200ACC0F4FFABC0F3FFAAC0DAFFA9C0D9FF68
:1066F200A8C0E2FFA7C0E1FF5F92110042C10EF104
:1067020043C10FF1DEEC41F00101CF51D011D8A409
:106712008DEF33F08FEF33F095EF33F0000E4F6FC4
:106722004F0E4E6F99EF33F0CFC14EF1D0C14FF102
:10673200000E536F000E526F52C156F153C157F102
:1067420056C14CF157C14DF14CC14AF14DC14BF10B
:1067520079EF34F042C105F143C106F129EC43F06F
:1067620005C158F106C159F10101582906E159291B
:10677200D8A4BEEF33F0C0EF33F0C6EF33F058C108
:1067820042F159C143F1CFEF34F052515311D8A421
:10679200CDEF33F0CFEF33F0F5EF33F02B0E581986
:1067A2005911D8B4D7EF33F0D9EF33F0E3EF33F028
:1067B2002D0E58195911D8A4E1EF33F0E3EF33F05D
:1067C200F5EF33F0000E536F010E526F800E562517
:1067D200D96E020E5721DA6E58C1DFFF564B572B86
:1067E200CB4BCC2B79EF34F04A514B11D8A4FCEFB0
:1067F20033F0FEEF33F00EEF34F02E0E581959112C
:10680200D8A406EF34F008EF34F00EEF34F0000EA7
:106812004B6F010E4A6FE7EF33F04C514D11D8A484
:1068220015EF34F017EF34F049EF34F0650E5819D4
:106832005911D8B41FEF34F021EF34F03FEF34F0A8
:10684200450E58195911D8B429EF34F02BEF34F012
:106852003FEF34F0700E58195911D8B433EF34F0B9
:1068620035EF34F03FEF34F0500E58195911D8A4D7
:106872003DEF34F03FEF34F049EF34F0000E4D6F4E
:10688200010E4C6F000E536F000E526FE7EF33F0A4
:10689200D00E466FFF0E476F58C148F159C149F1FA
:1068A200465148274751492349510AE10A0E485D9A
:1068B200D8A05EEF34F061EF34F0010E62EF34F0F5
:1068C200000E506F516B50515111D8A46BEF34F040
:1068D2006DEF34F0E7EF33F058C103F159C104F121
:1068E20042C105F143C106F1C1EC43F093EF34F02C
:1068F2004E51565D5751800A466F4F51800A465994
:10690200D8B086EF34F088EF34F093EF34F057517B
